:020000041000EA
:1000000000200008EB0000100D0000004D01001062
:1000100000000000000000000000000000000000E0
:100020000000000000000000000000004901001076
:10003000000000000000000049010010490100100C
:100040004901001049010010490100104901001048
:100050004901001049010010490100104901001038
:100060004901001049010010490100104901001028
:100070004901001049010010490100104901001018
:1000800010B5064C2378002B07D1054B002B02D06E
:10009000044800E000BF0123237010BDB003000836
:1000A0000000000018140010044B10B5002B03D002
:1000B0000349044800E000BF10BDC0460000000036
:1000C000B4030008181400100230800803D0013077
:1000D0000238FCD1C046C0467047EFF3108072B6BC
:1000E000704780F3108870477047FFF7FDFF72B6C6
:1000F0000F4C104DAC4209DA21686268A368043BDA
:1001000002DBC858D050FAE70C34F3E70A490B4A2F
:100110000020521A02DD043A8850FCDC08480949E4
:100120000860BFF34F8F00F085FE00F02FFEFEE762
:10013000241400103C140010B0030008C805000887
:100140000000000808ED00E0FEE7FEE700B504202F
:100150007146084202D0EFF3098001E0EFF3088016
:10016000043000F021FCFEE7014B18607047C046E8
:10017000C4050008044B1B681A00AC3212881B6AC5
:100180005043C0187047C046C40500081D4B984234
:100190000FD010D840282FD005D8002830D01028F4
:1001A00028D019481EE0802828D080235B00984280
:1001B000F7D1144816E0154B984214D008D8A02364
:1001C0001B0698421CD0124B9842EAD1A0200BE0AB
:1001D000104B98420AD0104B984209D00F4B9842CE
:1001E000DFD10F487047A420C003FBE70D48F9E7B3
:1001F0000D48F7E70D48F5E70D48F3E70D48F1E73F
:100200000020EFE706005200FF005200010000F05E
:10021000090000A0040000F0050000F0030000F059
:100220000100520002005200030052000100500081
:10023000020050000500520010B50020FFF79AFFA1
:100240000A4B1C682300B0331B68C0180368002BDE
:100250000ADB074B1868FFF799FF012263689A6071
:100260009A68002AFCD110BD0248FCE7C4050008CA
:10027000CC03000802005000064B1B68B0331B681B
:10028000C3181B68002B03DA89B241600020704755
:100290000148FCE7C405000801008A000368002B40
:1002A00004DA89B2C2608160002070470048FCE730
:1002B00001008A00064B1B68B0331B68C3181B681B
:1002C000002B03DAC36800200B6070470148FCE78D
:1002D000C405000801008A00024B1A68002A00D1F8
:1002E00018607047E0030008F0B52C246043124CFE
:1002F0001F0024681E0A2018FF24274034400F4E98
:100300001B0C356807602E6A44608360AC352D880D
:1003100080346F4364013419BF191E0433430761ED
:100320004461A36000238361059BC2610162002BCD
:1003300001D01B888381F0BDE0030008C4050008DC
:10034000F0B5836885B002AD2B80154B02681B6841
:10035000066A9B8E476A9B186B8043680095826A89
:10036000C16A040003930369C068FFF7BDFF002161
:100370003B000A0000913000FFF7B6FF216B280018
:1003800000F0C6FA0022AB5E002B06DB1F221340F2
:100390001E3A9A401300034A136005B0F0BDC046F0
:1003A000C405000800E100E0F7B52C25134C6843B4
:1003B000266869433418256901937118002D19D0F6
:1003C0008869002818D12E68002E15DA6768012484
:1003D00026004B689E40B44613689EB263461B04D9
:1003E0001E431660EA608C61BC40019BA4B24B6264
:1003F000AC60FEBD0248FCE70248FAE7E0030008F3
:1004000004028A0007028A0073B5002642690400CC
:10041000D56801962B0CB34221D01B0413601368DE
:10042000194B00691B68B0331B68C3181B68B342C3
:1004300015DA01A9FFF73EFFB0420CD10198E2693D
:1004400003681E0CDBB29A4205D9226A9B009B58B6
:10045000002B00D0984731002069FFF70DFFADB2A7
:10046000002D09D063691D6000251B68636AAB42DB
:1004700005D098476562A56163691B6873BDA36A6F
:10048000002BF8D09847F6E7C40500082C2310B5D8
:100490004343034A1068C018FFF7B6FF10BDC046BB
:1004A000E0030008F8B5194B0F001B681A002E3244
:1004B0001278824227D9002925D01F250A681540C5
:1004C00021D11900AC310C88114E60431C6AD2084E
:1004D000041929007868346000F00CFF290020001E
:1004E000FFF7CAFE3A0029003068FFF7D7FE041E66
:1004F00007D101003068FFF7BFFE03002000002B8A
:1005000000D00448F8BD0448FCE7C046C405000814
:10051000E403000801018A0003018A0010B5002AE3
:100520000DD1002914D10B4B1A681300AC331B8872
:100530005843136AC018084B1860080010BD002902
:1005400006D0064B196019005A60FFF7ABFFF5E7BC
:100550000348F3E7C4050008E40300087803000833
:1005600003018A00F7B5184F04003B680191DE686B
:100570003368834226D90025A94202D1FFF7ADFD99
:10058000050038680368002B1ADA1F220123224075
:10059000934064097268A4001419226813420DD0B4
:1005A0009A43226000240021FFF766FE019B002B86
:1005B00002D12800FFF795FD2000FEBD034CF2E7B5
:1005C000034CF3E7034CF7E7E4030008020188005B
:1005D0000301880004018A000A4B1B68DB681A6863
:1005E00082420DD959681F23420918401E3B83409F
:1005F000920050581840431E9841034BC018704752
:100600000248FCE7E40300080001880004018A00B6
:10061000A6220549D2008B580220DB439B0702D05B
:1006200001238858184070470000264010B5FFF796
:10063000EFFF0023022801D1014B1B68180010BDF9
:10064000E8030008094A83009B18D02292009858BA
:1006500007221040042807D1C022920098581F2377
:1006600003408020400018437047C04600002640E9
:1006700010B5FFF7E7FF02281CD005D8002814D0DA
:10068000012814D0002011E01223FF33984214D027
:100690001423FF33984218D0033B9842F2D10C4AFE
:1006A0000C4BD058C00FC00300E00B4810BD0B4BE3
:1006B0001868FBE7FFF7BAFFF8E7094B186904234E
:1006C0001840F3D080200002F0E7014A054BE8E72C
:1006D000000026400C05000000127A00EC03000820
:1006E000000027403C050000B023154ADB00D3582A
:1006F00010B59903DB01DB0F890BC371114B01604E
:10070000D3580F24D904DB01DB0D0381B123DB00B7
:10071000D358C90C818019002140817219092140E8
:10072000C172D9029B009B0F8373074BC90CD3582E
:1007300081815A05DB01520FDB0D8271038210BDEE
:1007400000002640840500008C05000010B5104B09
:10075000421E1B683B331B78934216D97F221F240D
:100760008030FF300B4B8000C3581A400A701A0CBF
:100770002240180A8A701A012040E2404870002086
:100780009B009B0FCA700B7110BD0348FCE7C0466D
:10079000C40500080000264001004A00F0B587B0FB
:1007A0000400FFF765FF0600002C34D101AD1422D0
:1007B0002100280000F09EFD2800FFF795FFB023E0
:1007C000254ADB00D358002B03DAAC7B023C631EC6
:1007D0009C41EA79019F531E9A41A8880132002C5E
:1007E00016D00023190000F06FFC00230C00050058
:1007F0003A003000190000F067FCE6076A0832434F
:100800006308801859412A00230000F03DFC0600CF
:10081000300007B0F0BD114B1B683B331B78A3427F
:10082000F6D301AD05220021280000F063FD200071
:1008300029008034FFF78AFFFF34074BA400E358F8
:100840000024A34203DA2C79023C631E9C412F78DA
:100850006878AA78C3E7C04600002640C4050008AF
:10086000E02210B50124094B80009200C018835883
:1008700080589B069B0F9C400F231840FFF78EFF6C
:1008800063081818210000F073FB10BD000026401B
:10089000144B30B51A680724130028331B781F2B1C
:1008A00015D883081D00A5432C1E0FD1033420400A
:1008B000A040814012689B002032D3180A00FF211B
:1008C00081401C68624011406140196030BD802346
:1008D00020401B06184380239B011268C918890019
:1008E0008850F3E7C4050008064B9A6803000648E1
:1008F00010339B00824202D1985899507047034AA6
:10090000D058FBE700ED00E00000000800000010F8
:10091000F8B506000D0000283AD00023C05E00287C
:1009200028DB7188FFF7B4FF0024FF2203279446D9
:100930000023F05E716883B21F40FF006646BA4034
:1009400089013140D243B940002815DB114E83089C
:100950009B009B19C026B6009F593A4011439951FC
:100960000D4B9A680D4B9A4202D12900FFF7BCFF4C
:100970002000F8BD0A4CD8E70F263340083B064E4E
:100980009B089B009B19DE6932401143D961E7E760
:10099000034CEDE700E100E000ED00E0000000089E
:1009A00001005600FEE7000002680A4B10B51A600D
:1009B00042685A6082689A60C268DA6002691A61A5
:1009C00042695A6182699A61C269DA61FFF7EAFF96
:1009D00010BDC04690030008B0235B059A89002A29
:1009E00002D0988980B2704780204000FBE7000069
:1009F0007FB5274B86000D00F458042901D001294A
:100A000027D100200FE0A3682B420BD1E368290017
:100A10001A685B6802920193039302A823689847BF
:100A20001C4B1C606469002C0BD01B4B9842EAD114
:100A3000012DE8D1174B18481A68184B9A5104B089
:100A400070BD012DFBD1144B9842F3D0134B9C5138
:100A5000F5E7022906D10F4B1B68181EEFD01C6961
:100A600003E01C006369002BFBD10020002CE6D0C2
:100A7000A3682B4209D1E36829001A685B680292D7
:100A80000193039302A8236898472469EEE7C046C0
:100A9000300400082C040008FF004200180400087D
:100AA000194B1B68190004C9C96F51180968016204
:100AB00019000831C96F5218126842621A00413297
:100AC0001278002A1FD09A68E0321268D2061AD52E
:100AD000F222DB68D2019A580260F022D2019A58C1
:100AE00042600A4A9A588260094A9A58C260094A82
:100AF0009A580261084A9A584261084A9A58826193
:100B0000074A9B58C3617047C40500080478000079
:100B1000087800000C7800001078000014780000BD
:100B200018780000194B1B681A1D1968D26F8A18B3
:100B3000016A11601A0008321968D26F8A18416A76
:100B400011601A0041321278002A1ED09A68E032F1
:100B50001268D20619D5F0224168DB68D20199509B
:100B600081680B4A9950C1680A4A995001690A4A3A
:100B700099504169094A99508169094A9950C16956
:100B8000084A99500168E83299507047C405000836
:100B900004780000087800000C780000107800004D
:100BA0001478000018780000B023F7B55B055A7878
:100BB00007002126002A01D05E78F6B2624D6B68EC
:100BC000002B00D07CE0FFF788FA6B680090002BC8
:100BD00000D088E05D4C22681300AC3319880723ED
:100BE0004B43126A9B181A68002AFCDADB68DA00A9
:100BF00020D51B0F1B0756480193FFF751FF55499E
:100C0000212E00D074E0902022680001131DDC6FBB
:100C100013681C1923680B40034323601300083337
:100C20001268DB6FD3181A68114008431860484BEC
:100C3000019A13438022454E9205316813430A00FE
:100C4000AC321088072200244243096A5218D3604C
:100C500054605368FFF7C0FE80235B0098425CD16C
:100C6000380000F05DFB32681300AC3319880723AD
:100C70004B43126A9B181A68002AFCDADF68FB00F3
:100C800003D538010009FFF74DFF334B32681F4091
:100C90001300AC33198807234B43126A00989B1842
:100CA0000022DF605A60FFF71CFA002C0FD16B683E
:100CB000002B03D008210120FFF79AFE2000FEBD83
:100CC00001210800FFF794FE041E00D17BE76B684A
:100CD000002B03D002210120FFF78AFE1F4B9C420C
:100CE000ECD01F4CEAE704210120FFF781FE71E7F9
:100CF000802220685200031DDC6F03681C192368E2
:100D00000B4013432360030008330068DB6FC318F4
:100D1000186801400A431A6089E732681300B0334B
:100D20001B68126A9B181B68002B0ADB04230D4A00
:100D300011690B431361012F01D030BF93E720BF2E
:100D400091E7064C8FE7C04630040008C405000850
:100D5000F0030008FF00FFFFFFFFFFDF0500420078
:100D6000FF00420000ED00E0C02280200649520052
:100D70008B58C0059B009B0803438B5080238858E9
:100D80001B0603438B5070470000264010B562B627
:100D9000034800F0C7F80020FFF706FFFBE7C04656
:100DA0000020001010B50020FFF770FB10BD704749
:100DB00010B50020FFF754FD002829D0154B18600E
:100DC000154B1B681A1D1C68D36FE4182168090EA7
:100DD000013100F0CDF8114B18602168090AC9B241
:100DE000013100F0C5F80E4B441E18600D4920007B
:100DF00000F0BEF8FA210C4B013018708900200079
:100E000000F0B6F8094B01301860094BC0031860B8
:100E100010BDC04684000008C40500088800000812
:100E20008000000840420F00940000089000000875
:100E30008C00000810B52048FFF796F9B022E02199
:100E400030201E4CD200A35889005B005B08A350E1
:100E500063588343635080235B04A350184B194AA3
:100E6000E250A02204339201E250FF22164BE250DE
:100E7000FFF77AFFC02201215200A3588B43A350F1
:100E8000FFF795FFFFF794FF104B03201A6813003C
:100E9000AC33198807234B43126A80219B18002228
:100EA000DA605A600A4AFFF739FB0A48FFF714FA7A
:100EB0000948FFF745FA10BD301300100000264026
:100EC00084050000010002008C050000C405000834
:100ED0008003000844040008E41300109023034A30
:100EE0005B01D058032318407047C04600002040E3
:100EF00010B59024FFF7F1F8074B64011A59074920
:100F00001140074A0A431A51102259681142FCD075
:100F1000FFF7E7F810BDC04600002040FCFF0000CE
:100F20000100FA05F8B590250E4C6D010700FFF79A
:100F3000D4F863590600DB439B0701D1FFF7D8FFC4
:100F400080239B00E7506359074A1A40074B13431D
:100F50006351102362681A42FCD03000FFF7C1F8D9
:100F6000F8BDC04600002040FCFF00000300FA0569
:100F7000002243088B4274D303098B425FD3030AD8
:100F80008B4244D3030B8B4228D3030C8B420DD3EB
:100F9000FF22090212BA030C8B4202D31212090279
:100FA00065D0030B8B4219D300E0090AC30B8B42B7
:100FB00001D3CB03C01A5241830B8B4201D38B0365
:100FC000C01A5241430B8B4201D34B03C01A52410A
:100FD000030B8B4201D30B03C01A5241C30A8B424D
:100FE00001D3CB02C01A5241830A8B4201D38B0238
:100FF000C01A5241430A8B4201D34B02C01A5241DC
:10100000030A8B4201D30B02C01A5241CDD2C3094D
:101010008B4201D3CB01C01A524183098B4201D3C9
:101020008B01C01A524143098B4201D34B01C01AB4
:10103000524103098B4201D30B01C01A5241C3082C
:101040008B4201D3CB00C01A524183088B4201D39B
:101050008B00C01A524143088B4201D34B00C01A87
:101060005241411A00D20146524110467047FFE7F3
:1010700001B5002000F006F802BDC0460029F7D0F7
:1010800076E770477047C046002B11D1002A0FD178
:10109000002900D1002802D00021C943081C07B450
:1010A000024802A14018029003BDC046D9FFFFFFCD
:1010B00003B4684601B5029800F030F8019B9E46E3
:1010C00002B00CBC7047C046F0B5CE46474615048A
:1010D0002D0C2E0080B50704140C3F0C9946030C10
:1010E0007E435D43674363437F19340CE4199C4698
:1010F000A54203D980235B029846C4444B46434330
:101100005143250C36046544360C2404A4195B199C
:10111000591820000CBC90469946F0BDF0B54F46DA
:101120004646D646C0B5040082B00D0091469846AA
:101130008B422FD82CD04146484600F0CFF82900EA
:101140000600200000F0CAF8331A9C46203B9A465D
:1011500000D576E04B46524693401F004B46624610
:1011600093401E00AF4228D825D05346A41BBD4152
:10117000002B00DA7BE00022002300920193012380
:10118000524693400193012362469340009318E036
:101190008242D0D900220023009201930A9B002BA7
:1011A00001D01C605D600098019902B01CBC9046A3
:1011B0009946A246F0BDA342D7D90022002300924F
:1011C00001936346002BE9D0FB079846414672081D
:1011D0000A437B0866460EE0AB4201D1A2420CD81E
:1011E000A41A9D41012024196D410021013E2418BB
:1011F0004D41002E06D0AB42EED9013E24196D417F
:10120000002EF8D100980199534600196941002B2E
:1012100023DB2B005246D3402A006446E2401C00E8
:1012200053461500002B2DDB26005746BE403300E9
:1012300026006746BE403200801A99410090019115
:10124000ACE7624620239B1A4A46DA406146130007
:1012500042468A4017001F4380E7624620239B1ABC
:101260002A0066469A402300F3401343D4E76246BF
:10127000202300219B1A0022009101920122DA40D2
:10128000019280E72023624626009B1ADE402F0051
:10129000B0466646B74046463B003343C8E7C046C3
:1012A0001C2101231B04984201D3000C10391B0A96
:1012B000984201D3000A08391B09984201D300095A
:1012C000043902A2105C40187047C04604030202B1
:1012D00001010101000000000000000010B500291C
:1012E00003D1FFF7DDFF203002E0081CFFF7D8FF35
:1012F00010BDC04603001218934200D17047197008
:101300000133F9E7F8B5C046F8BC08BC9E46704703
:10131000F8B5C046F8BC08BC9E4670470000000007
:1013200001B40248844601BC604700BF6102000866
:1013300000002040000024400000004000000000A9
:1013400000002340000030400000314000009F407A
:10135000000022400000104020202020201010100B
:101360001D1D800017007500FF03060206360410DD
:10137000200000007FC0000000040000000000000A
:101380000019324B647D00804000080B1000000003
:101390000000FF012002001F00800004FF08101859
:1013A000001000140018001C4044484C500000007D
:1013B00008100000080000000400000004100000F5
:1013C00000120000042100000021000000160000AF
:1013D00040114002C41300138013A013200000002A
:1013E0001C000000030000000100000001000000DC
:1013F0000000000005036000040000000100000080
:101400000000000001000000060460000800000069
:10141000A4050008A50D00100000000000FDFF7FDE
:101420000100000000000010000000088000000023
:101430004414001080000008F8020000B003000807
:101440001802000000093D0000127A0000093D006A
:101450000000D007A00F000004000000A900001049
:101460008100001080B230B5C00020D0104B0722A0
:101470001C682300AC331B885A43236AD3181968AD
:101480000029FCDA3E210B4B062519600A4B0B495B
:101490001960A3210A4BC9005D500A495850585899
:1014A000206A1218002050605A58002AFCDA30BD19
:1014B000C405000804012640080126401E1F000044
:1014C000000026401C05000010B54378FF2B11D109
:1014D00000F0ECF80400032000F018F9C3685A6823
:1014E000012311681943116011681942FCD12000D1
:1014F00000F0F4F810BDF7B500900020019100F065
:1015000005F93F4D06002B681A004C33B0321468C1
:101510001B780419002B5AD000F0E8F807000328C4
:101520001BD000F0C3F8374A374B0500D358002BC7
:101530003EDA364A0121300000F0C0F8002837D1E9
:101540000198FFF78FFF009B002B3ED02368002BF4
:10155000FCDB00F0EBF804002BE0062000F0D6F8EE
:101560002B68B0331B68C0180368002B02DA284CC4
:101570002000FEBD002000F0C1F8264B9842F6D0B6
:101580000023254A19001268012000F09FF8002569
:10159000A842ECD1002000F0B1F81E4A1F4B904247
:1015A00003D09D42E3D00135F4E79D42B9D1DEE797
:1015B000174C032F05D10121002000F0AFF80028BF
:1015C000F9D1280000F08AF8D2E7154CF1E700F0D5
:1015D0006DF80E4A05000121300000F06FF8002878
:1015E00009D1009B002B08D02368002BFCDB00F006
:1015F0009DF80400E5E7064CE3E7094CE1E7C04647
:10160000C4050008000026401C050000CC030008AB
:101610000500520001018800DC030008F0490200C7
:1016200001005000184BF7B51B68184A5C6804238A
:1016300011690B431361012824D030BF2300FC3310
:101640001B69002B1DD1A320114B1249124AC00067
:101650000F681E5815680195104D0D6006251D5028
:101660003E2010600E483E351D501D58002DFCDAFE
:101670000C48FC3420610F60A321C9005E50019B1F
:101680001360F7BD20BFD9E7C405000800ED00E0F6
:101690000000264008012640040126401E1F0000CD
:1016A0001C050000AAAAAAAA0000000001B4024872
:1016B000844601BC604700BFDB00001001B4024853
:1016C000844601BC604700BF9D02001001B402487F
:1016D000844601BC604700BFA903001001B4024862
:1016E000844601BC604700BFE300001001B402481B
:1016F000844601BC604700BFDD0E001001B4024803
:10170000844601BC604700BFD905001001B40248FF
:10171000844601BC604700BF7501001001B4024857
:10172000844601BC604700BF6505001001B4024853
:10173000844601BC604700BF390200100000000071
:101740000000000000000000000000000000000099
:041750000000000095
:1020000000F80F08252300100D0000009923001090
:10201000992300109923001099230010000000005C
:1020200000000000000000000000000095230010E8
:102030009523001000000000952300109523001048
:102040009523001095230010952300109523001070
:102050009523001095230010952300109523001060
:102060009523001095230010952300109523001050
:102070009523001095230010952300109523001040
:1022E00010B5054C237833B9044B13B10448AFF350
:1022F00000800123237010BD2C280008000000007E
:10230000AC4E001008B5034B1BB103490348AFF3B3
:10231000008008BD0000000030280008AC4E00100E
:1023200070477047FFF7FCFF72B6144C144DAC4277
:1023300009DA21686268A368043BA2BFC858D0507C
:10234000FAE70C34F3E70F490F4A00209142BCBF73
:1023500041F8040BFAE70D480D490860BFF34F8FB1
:1023600000F0BAFB00F09EFBFFF7DBFF02F0FEFB84
:1023700002F060FA02F0E6FBFEE70000B84E001043
:10238000D04E00102C280008442A00080020000825
:1023900008ED00E0FEE7FEE700B5042071460842C4
:1023A00002D0EFF3098001E0EFF30880043001F080
:1023B000A9FEFEE7000000000230800803D00130D3
:1023C0000238FCD100BF00BF7047EFF3108072B637
:1023D000704780F31088704708B500F0C9F800F026
:1023E00007F800F0B7F800F02DF800F039F808BD54
:1023F00008B5124A136899684FF08040C1F800048C
:102400009868B3F87010435843F47F434350126800
:1024100092F86F1003238B4092F86C1092F86E00C4
:1024200081400B43916843F00043C1F80034936846
:10243000D3F80034024800F005FC08BD402A00082B
:10244000DC4B0010054B1B6893F83D202F2A03D965
:102450009B680022C3F8BC2C704700BF402A0008CC
:1024600010B5264C264A0021204600F0B3FD254831
:1024700000F0E8FB244A0121204600F0ABFD234890
:1024800000F0E0FB224800F0DDFB04F54074214A37
:102490000421204600F09EFD1F4800F0D3FB1F4A98
:1024A0000621204600F096FD1D4800F0CBFB1D4A9A
:1024B0000721204600F08EFD1B4800F0C3FB1B489F
:1024C00000F0C0FB1A4800F0BDFB1A4800F0BAFB50
:1024D000194800F0B7FB194800F0B4FB184800F0A9
:1024E000B1FB184800F0AEFB174800F0ABFB1748F3
:1024F00000F0A8FB164800F0A5FB10BD000031401D
:10250000B44C0010E84C0010EC4C0010204D0010B2
:10251000084C00107C4C0010B04C0010444C0010D3
:10252000784C00100C4C0010404C0010E04B001098
:10253000E44B0010E84B0010EC4B0010F04B001087
:10254000F44B0010F84B0010FC4B0010004C001036
:10255000044C0010044B332242F208015A5042F25C
:1025600010015A50704700BF00003040FEE70000E5
:1025700070B582B09621002001F016FE01F0B4FD86
:1025800000283BD0012002F0F7F8012001F0FCFF09
:102590006E4A536C23F47F4343F468535364536C83
:1025A000C3F307233A2B46D0694B1B6893F83C20B2
:1025B00032B16849D1F8802322F03002C1F880237B
:1025C0001968D3F884208B5823F47F438B50604ADA
:1025D00013681868D3F88010435823F07F4343F002
:1025E0008073435013681868D3F88010435823F45D
:1025F0007F434350136893F83B5026E001F064FD9D
:10260000544BD3F8803113F0010F06D1514AD2F860
:102610000C3523F00043C2F80C354E4BD3F80C2593
:1026200042F00042C3F80C25D3F80C2542F0010219
:10263000C3F80C25A6E7536C23F0005323F468532A
:1026400043F468535364AFE7013DDDB16C1E404B6A
:102650001B6893F83B309C42F6D23E4E05F27F1445
:1026600056F8243023F0405343F0005346F824300A
:10267000012001F01FFD56F8243023F0004346F8F6
:102680002430E1E70021012001F08CF8304B1B6879
:1026900093F83C3003B901BE2E4BD3F8803313F0CE
:1026A0000F0F3BD02B4BD3F8882522F0405242F03D
:1026B0000052C3F88825D3F8802522F00042C3F8E1
:1026C0008025D3F88C2522F00042C3F88C25002108
:1026D000084601F067F81E4B1B6893F83C3033B195
:1026E0001C4AD2F8803323F00F03C2F880331A4D0E
:1026F00000240094234622462146284600F084FD0B
:102700000094234622460121284600F07DFD0F4A11
:10271000136843F008031360104C25E0002001F01B
:102720006FF840F211139842BCD1094B1B6893F823
:102730003C30002BB6D0074AD2F8803323F00F0389
:1027400043F00103C2F88033ACE700BF000027402C
:10275000402A0008000026400000314040420F009F
:10276000012001F0A7FC013C9C4B1B6913F0040FF6
:1027700001D1002CF4D1002C00F019810023002B92
:1027800040F01781964AD2F8003523F0030343F056
:102790000103C2F80035934C23681968D3F88420EC
:1027A0008B5823F47F438B5023681968D3F880201B
:1027B0008B5823F07F438B5023681968D3F880200F
:1027C0008B5823F47F438B500021012000F0EAFF57
:1027D000236893F83C3043B1814AD2F8803323F028
:1027E0000F0343F00103C2F880330021084600F0D4
:1027F000D9FF0021022000F0D5FF0021032000F0C6
:10280000D1FF0021042000F0CDFF0021052000F0C1
:10281000C9FF754801F05CF8002840F0CE8073488D
:1028200001F006F9002840F0CC806E4B1B6893F84D
:102830003C2032B16A49D1F8802322F00F02C1F85E
:10284000802393F83C3033B1654AD2F8803323F0CB
:102850003003C2F880330021012000F0A3FF644957
:10286000022001F047F9002840F0AF8042F21071D9
:10287000022001F043FA002840F0AB80594B1B685E
:1028800093F83C20022A06D95549D1F8882322F032
:102890000F02C1F8882393F83C20022A08D9504936
:1028A000D1F8882322F0300242F01002C1F88823C8
:1028B00093F83C30022B06D9494AD2F8883343F0CA
:1028C0000043C2F88833474B1B6893F83C20032A27
:1028D00008D94349D1F88C2322F00F0242F00202BA
:1028E000C1F88C2393F83C20032A06D93C49D1F83F
:1028F0008C2322F03002C1F88C2393F83C30032B58
:1029000006D9374AD2F88C3343F00043C2F88C33EF
:10291000344B1B6893F83C20042A06D93049D1F87F
:10292000902322F00F02C1F8902393F83C20042A50
:1029300006D92B49D1F8902322F03002C1F8902318
:1029400093F83C30042B06D9254AD2F8903343F053
:102950000043C2F89033214A136823F44073136094
:102960001F4BD3F80C2542F00042C3F80C25D3F8D6
:102970000C2542F00102C3F80C256421002001F06F
:1029800013FC00F04BF81B4800F05CF91A4800F00B
:1029900059F91A4800F056F9194800F053F9194846
:1029A00000F050F9184800F04DF902B070BD174B17
:1029B000E5E60520FFF7DAFDE4E60420FFF7D6FDA3
:1029C0002DE70420FFF7D2FD2FE70320FFF7CEFD10
:1029D0004CE70320FFF7CAFD50E700BF0000274087
:1029E00000002640402A0008244D0010400D03003E
:1029F000504D0010384D00103C4D0010404D00105F
:102A0000444D0010484D00104C4D001002004A008B
:102A100008B5012000F0C2FD08BD704708B50020D0
:102A200001F0D0FA58B30346154A1060154A1168F0
:102A30000868D1F880208258120E0132B3FBF2F2FE
:102A4000114802600868D1F884208258C2F3072236
:102A50000132B3FBF2F30D4A1360013B0C4AA2FBB7
:102A60000312920C01320B490A700B4AA2FB03239A
:102A70009B090133094A1360DB03094A136008BD4F
:102A8000E4220008402A0008E8220008E0220008AA
:102A900083DE1B43F4220008D34D6210F0220008AD
:102AA000EC22000808B5094800F014FAFFF7B5FF5A
:102AB000FFF7B4FF00221146032000F0B9FD0448DF
:102AC00000F038FC034800F089FC08BDF84D001008
:102AD00048280008584D001008B5FFF776FC074A53
:102AE000D2F8883043F47003C2F88830BFF34F8FB8
:102AF000BFF36F8FFFF76DFC08BD00BF00ED00E076
:102B000008B5044801F05CFD08B1002008BD02488A
:102B1000FCE700BFF82200080000020610B500F034
:102B20008FF8044620B1FFF757FC2CB1204610BDAA
:102B300000F084F90446F6E7FFF7E2FF0446F5E704
:102B4000F0B4032820D00E4611460746334A32F827
:102B50001050421C162A1AD8D2B2304C34F8124007
:102B60000122BA402E4F3A424ED0821E122A19D864
:102B7000DFE802F01B181D18181012141818181886
:102B800018181818181816000D260420DDE740F252
:102B90003114E5E7234A0BE0234A09E0234A07E022
:102BA000234A05E001BE1C8030E0224A00E0224AB0
:102BB0001C805AB30238122813D8DFE800F00A123A
:102BC0001512120A0C0E12121212121212121212F4
:102BD0001000012709E0022707E0102705E002277F
:102BE00003E001BE002700E01A27BE420ED2905D2E
:102BF000284411FA80F11980711CB94206DA164492
:102C000074782C44A4B201E035441D801B88A34293
:102C100002D20020F0BC70470848FBE7C84D001006
:102C200094031000AC4D0010B04D0010B44D0010D6
:102C3000C44D00108C4D0010904D00100001020496
:102C400000207047F0B583B00446FFF7BEFB064690
:102C50000DF10603A27861782078FFF771FF054631
:102C600070B9BDF80630C3F3C70203F00703154976
:102C7000895C012202FA03F3194214BF17460027A8
:102C800005B9EFB92DB13046FFF7A3FB284603B0D5
:102C9000F0BD0DF10603A27861782078FFF750FFB0
:102CA00005460028EFD1BDF80630C3F3C70103F095
:102CB0000703044801229A40435C13434354E2E76C
:102CC000014DE0E7D029000801010204F8B50446EF
:102CD0000F4615461E4603E001233B70DBB1E46856
:102CE00040F289739C4216D02368002BF7D02279DA
:102CF00035EA0202F3D1627936EA0202EFD0A26825
:102D00003146284698470028E6D1012E01D00123FC
:102D1000E3E70023E1E72046F8BD70B504460D4621
:102D2000164600E0E468AC420FD02368002BF9D0CF
:102D3000227936EA0202F5D1627912F0020FF1D15E
:102D4000A268022130469847ECE770BD2DE9F041BA
:102D500082B00479022C01D101290FD0084600F07D
:102D6000A5F8054601238DF8073002280CD0082865
:102D70000AD02D4B1F682D4B1E6809E02C4B1B8879
:102D8000002BEBD02B481CE0274B1E68274B1F68FD
:102D90002B4622460DF107013046FFF797FF80468C
:102DA0009DF8073083B938469DF807300BB9012DDF
:102DB00012D0102C1BD0082C26D09DF8073083B3DE
:102DC000002002B0BDE8F0812B4622460DF107013C
:102DD0003846FFF77BFFE7E7224601463846FFF714
:102DE0009CFF224641463046FFF797FFE1E7042D5E
:102DF000E1D1002001F0E6F80F49A1FB0031890C78
:102E0000012001F0D1F9D6E7082DD6D1002001F03C
:102E1000D9F80949A1FB0031890C002001F0C4F95F
:102E2000CBE70448CDE700BFC8230008CC23000847
:102E3000F8290008FF00420083DE1B4308B5144B4D
:102E40005B6813F4003F15D1124801F0B9FBA0B143
:102E5000114801F0B5FB90B1104801F0B1FB80B111
:102E60000F4801F0ADFB70B10E4801F0A9FB60B155
:102E7000002003E001F0ECFBE6E70B4808BD0A4840
:102E8000FCE70948FAE70848F8E70748F6E700BF13
:102E900000002640902300083C2300085823000827
:102EA00074230008AC230008011602040138072827
:102EB0000BD8DFE800F0040D0A060A0A0A08012010
:102EC0007047042070470820704701BE01207047FA
:102ED00002207047014B1860704700BF402A00086D
:102EE0001D4B98422FD00ED91C4B984231D019D986
:102EF0001B4B984223D00133984222D0023B984288
:102F00001BD01848704740281FD006D980281ED0F3
:102F1000B0F5807FF5D11048704760B11028F0D12E
:102F200011487047B0F1204F05D0104B9842E8D1BE
:102F30004FF4A0007047002070470D4870470D48BF
:102F400070470D487047044870470C4870470C485C
:102F500070474FF4A400704706005200010000F0D3
:102F6000040000F0FF00520001005000090000A022
:102F70000100520002005200030052000200500003
:102F80000500520010B5104B1B6893F82E30012B32
:102F900016D90D4B1C68236AB4F8AC201344D4F83E
:102FA000B020D358002B0DDB084B1868FFF798FFB3
:102FB000636801229A6063689B68002BFBD110BD97
:102FC00001BEE6E70248FAE7402A0008FC290008AB
:102FD00002005000002800F00F81F0B50446002ADE
:102FE00000F00C81072900D901BE1368012B00D91C
:102FF00001BE536833F00F0300D001BE137A33F0E3
:103000001F0300D001BED368032B00D901BE136992
:10301000012B00D901BE5369012B00D901BE936970
:10302000012B00D901BED369032B00D901BE136A5D
:10303000012B00D901BE536A012B00D901BE936A4E
:10304000012B00D901BED36A032B00D901BE136B3B
:10305000072B00D901BE1368072900D901BE012B37
:1030600000D901BE002B40F0B48001238B40636087
:103070005368072900D901BE33F00F0000D001BE0C
:103080008F005F48006890F8796030590F25BD4087
:1030900020EA050003F00F03BB4003433351107ACD
:1030A000072900D901BE30F01F0300D001BE544BE8
:1030B0001D68AB69E31ADB096D691B01EE18032972
:1030C00040F28B800B1F7568DB001F279F4025EAAD
:1030D000070500F01F00984028437060D068082959
:1030E00000D901BE032800D901BE4B00444D2D6814
:1030F00095F878703D5903269E4025EA060500F0B4
:1031000003009840284338511569082900D901BEA9
:10311000012D00D901BEA069012606FA01F76FEA68
:10312000070C00EA0C0035408D400543A56150694D
:10313000072900D901BE012800D901BE304D2E68F3
:1031400096F87AE054F80E6006EA0C0600F00100EA
:103150008840304344F80E0003F1100C032606FAB1
:103160000CF63E432B6893F87B70E35923EA06067E
:10317000936903F001038B403343D06900F00300EF
:1031800000FA0CF00343E3512B6893F87C002558B8
:1031900025F0FF05136A03F00103566A760006F076
:1031A00002063343966AB60006F004063343D66A35
:1031B000F60006F018063343126B5201D2B21343E5
:1031C000890001F47E7103FA01F1294321500020A6
:1031D000F0BD01238B40A3604AE7EE584FEAC10CD3
:1031E0001F2707FA0CF726EA070600F01F0000FA6F
:1031F0000CF03043E85071E7024870470148E7E7B8
:10320000402A000801005A00F0B49DF81040072938
:1032100000D901BE32F00F0500D001BE012B00D94C
:1032200001BE34F01F0500D001BE056801268E40A6
:1032300025EA060503F001038B402B4303601E4B78
:103240001B6893F8796033588F000F25BD4023EA3F
:10325000050302F00F02BA401A433250072900D981
:1032600001BE34F01F0300D001BE134B1B689A69E6
:10327000801AC0095B6900011D1803290ED90439A1
:103280006B68C9001F228A4023EA020304F01F046E
:1032900004FA01F119436960F0BC70471A58C9007B
:1032A0001F258D4022EA050204F01F0404FA01F1F3
:1032B00011431950F0E700BF402A0008084B1B6873
:1032C000D3F8B0301B58002B07DA0B0C1B0403B1EA
:1032D00001BE89B24160002070470248704700BFBC
:1032E000402A000801008A000368002B08DAC26047
:1032F0000B0C1B0403B101BE89B281600020704732
:103300000048704701008A000A4651B1074B1B680C
:10331000D3F8B0301B58002B05DAC36813600020C7
:10332000704701BEF2E70248704700BF402A00081C
:1033300001008A00034B1B6803B17047014B186002
:10334000FBE700BF102A0008F0B4049E214C24685B
:10335000002C3DD01F4C27682C2404FB00F03C18A7
:10336000DDB23D50C3F3072060601B0CA3601A4B15
:103370001B6893F82E309D4200D301BE164B1B688C
:10338000186AB3F8AC7007FB05052561606893F80F
:103390002F30984200D301BE0F4B1B681B6A803050
:1033A00003EB40136361A568280C000400B101BE63
:1033B00000B101BEA8B240EA05409860E261216216
:1033C0000023A36116B1B6F90030A381F0BC7047A9
:1033D00001BEBFE7102A0008402A0008F0B58FB0F0
:1033E0000446002840D0A369072B00D901BEE36A38
:1033F000002B3BD0236B002B3AD007AD04F1140611
:103400000FCE0FC537682F6002AD26460FCE0FC511
:1034100033682B60174B1B689B8E079A1344ADF8DB
:103420003030089B0D93A26AE16A0CAD00953B46D3
:103430000A98FFF789FF00210091069B0A4605982C
:10344000FFF782FF216B284600F002FEBDF9303005
:10345000002B07DB03F01F015B0901228A400649AC
:1034600041F823200FB0F0BD01BEBCE701BEC1E7AB
:1034700001BEC2E7402A000800E100E0F0B41646B1
:103480004AB31A4A126842B3184A12682C2404FB41
:10349000002004FB01214A68012404FA02F212040C
:1034A0004568AC400569D5B18F69D7B92D68002D45
:1034B00019DA35882A4332600269D66001228A61AE
:1034C0004B620269230C1B0403B101BEA4B29460D9
:1034D0000020F0BC704701BED3E701BED4E704482A
:1034E000F7E70448F5E70348F3E700BF102A0008B0
:1034F00004028A0007028A0070B582B0002301939B
:10350000044628B323692BB363692BB3236A2BB317
:103510006369DD682A0C0BD02A0C12041A601B6840
:1035200020691D4B1B68D3F8B0301B58002B17DBEC
:10353000ADB24DB163691D601B68636A3BB39847C8
:10354000002363620023A36163691B6802B070BD3E
:1035500001BED7E701BED7E701BED7E701BED7E777
:1035600001A9FFF7D1FE60B9019803681E0CDBB218
:10357000E2699A4206D9226A52F8233013B1984779
:1035800000E0002631462069FFF798FED0E7A36AE5
:10359000002BD7D09847D5E7402A000808B5064B3E
:1035A0001B683BB1044B1B682C2202FB0030FFF769
:1035B000A3FF08BD01BEF5E7102A0008184B1B68E1
:1035C00093F82E20824223D921B30A6812F01F0FEC
:1035D00022D170B50D461C6AB3F8AC3003FB004431
:1035E000104E3460D2080021686801F0E3FA00212F
:1035F0002046FFF763FE2A4600213068FFF774FE7D
:1036000060B900213068FFF759FE40B1064806E076
:10361000064870470548704704487047024870BD27
:10362000402A0008142A000801018A0003018A00C8
:1036300008B513464AB1E3B1E9B11A460B460F4942
:103640000B604A60FFF7BAFF08BD0029F3D10C4BAD
:103650001B6893F82E30984200D301BE084B1B68BC
:103660001A6AB3F8AC3003FB0020064B1860002048
:10367000EAE70548E8E70448E6E700BF90270008C6
:10368000402A0008142A000803018A002DE9F041AD
:10369000194B1B68DD682B6883422BD90C46460901
:1036A00000F01F00012303FA00F851B10027124B6C
:1036B00018680368002B08DB104DBCB12846BDE834
:1036C000F081FEF782FE0746F1E76A6852F826307D
:1036D00013EA080F08D023EA080342F82630002531
:1036E0000021FFF7EBFDE8E7054DF9E73846FEF767
:1036F00070FEE3E7034DE1E7142A000803018800A8
:103700000201880004018A000B4B1B68DB681A6801
:1037100082420ED9410900F01F00012202FA00F096
:103720005B6853F82130034201D1044870470448D4
:1037300070470448704700BF142A00080001880041
:103740000101880004018A00084B1B685B6CC340C0
:1037500013F0010F00D101BE044B1B681B69103030
:103760008002185800F00F00704700BF402A000880
:10377000014B1868704700BF202A0008074BD3F898
:10378000303503F00303032B04D0044BD3F830355A
:1037900000207047024B1868704700BF00002640A9
:1037A0001C2A0008134B1B6893F83A3083421DD93A
:1037B000042904D9A1F580739BB2132B18D8FF29D3
:1037C00007D801F00701D0300B4B43F82010002040
:1037D000704701F01F01084B00F1C00243F82210AE
:1037E000D030042243F8202000207047034870475F
:1037F00002487047402A00080000264001004A00A5
:103800000C4B1B6893F83A30834200D801BE00F19C
:10381000D003094A52F8233003F00703042B01D0E8
:1038200018467047C03052F8203003F01F0343F4AD
:103830008073F5E7402A00080000264008B5204BB9
:103840001B6893F83A30834200D801BEFFF7D8FFD7
:10385000022813D00CD940F2111398421BD040F229
:10386000131398421FD0B0F5887F0AD0002008BDFE
:1038700018B30128FAD1FFF77BFFF8E7FFF77EFFC7
:10388000F5E7104BD3F80C35002B01DB0020EEE7F9
:103890004FF40040EBE70C4B186910F00400E6D041
:1038A0004FF40040E3E7074BD3F83C35002B01DB36
:1038B0000020DCE74FF40040D9E70448D7E700BF19
:1038C000402A0008000026400000274000127A002D
:1038D000034600286FD03B4AD2F88025002A6EDBD1
:1038E0001A68B2F5802F00D301BE1A68C2F3110224
:1038F000D979002961D04FF080710A433149C1F86C
:1039000080259A88B2F5005F00D301BE1A89B2F50E
:10391000007F00D301BE9A88C2F30C0218892A499D
:1039200001EA00410A432749C1F884259A7A0F2AFF
:1039300000D901BEDA7A0F2A00D901BE9A89B2F500
:10394000005F00D301BE9A7A02F00F02D97A090112
:10395000C9B20A4398891D4901EA00210A43997BAB
:10396000090701F040510A431649C1F888259A79A0
:10397000042A00D901BE1A8AB2F5007F00D301BE25
:103980001048D0F88C2522F4E0629979090201F4FC
:10399000E0610A43C0F88C25D0F88C2522F0FF7234
:1039A00022F48032198A084B03EA01431A43C0F813
:1039B0008C250020704701BE8DE700219DE704485B
:1039C000704700BF000026400000FF0100FF1F00FD
:1039D00003004A00034638B31449D1F88025C2F3E6
:1039E00011001860C2F30062DA71D1F88425C2F3C5
:1039F0000C009880C2F308421A81D1F8882502F0A1
:103A00000F009872C2F30310D872C2F30C20988191
:103A1000C2F301729A73D1F88C25C2F30221997115
:103A2000C2F308421A82704701BED5E70000264063
:103A300038B505462D4AD2F88C3543F00043C2F81C
:103A40008C35044603E0012000F034FB013C274B99
:103A5000D3F8903513F0040F01D1002CF3D1234A91
:103A6000D2F8883523F0405343F00053C2F888352C
:103A700005B15CB11D4AD2F8803543F00043C2F86D
:103A8000803503E0012000F015FB013C174BD3F813
:103A9000903513F0010F01D1002CF3D105B154B1D1
:103AA000124AD2F8883543F04053C2F88835C5B180
:103AB000CCB1002016E00D4BD3F8882522F04052FF
:103AC00042F00052C3F88825D3F8802522F0004246
:103AD000C3F88025D3F88C2522F00042C3F88C254A
:103AE000E5E7002038BD0248FCE700BF00002640A3
:103AF00002004A002F4B1B6893F83B3083424AD3A5
:103B00000138834200D801BE00F5C0732A4A52F83A
:103B10002330002B41DB8A78931EDBB20E2B3ED87C
:103B20004B78002B3DD0122B3DD870B40C78CD785B
:103B30006DB31326B44238D35DB33826B44236D8B9
:103B40000E79022E12D004F07F041B0203F4F85306
:103B50002343120402F4F8121A43ED0605F000653F
:103B60002A4300F5C073144C44F82320124C00F58E
:103B7000C07054F8203023F040530A79120702F045
:103B80004052134344F82030002070BC7047162682
:103B9000D0E77026D2E709487047094870470748C0
:103BA000704706487047054870470448EDE70348EA
:103BB000EBE700BF402A00080000264001004A0051
:103BC00003004A0001380F4B1B6893F83B308342D7
:103BD00015D900F5C0700C4B53F8203003F07F026C
:103BE0000A70C3F304224A70C3F304428A70C3F319
:103BF000C062CA70C3F301730B71002070470348A1
:103C0000704700BF402A00080000264001004A001B
:103C1000F0B587B00446374B1B6893F83A308342BF
:103C200000D801BE2046FFF709FE0546CCB1314B56
:103C30001B6893F83B30A34234D2002318461A463F
:103C400019465BB1A2FB00235F084FEA3206E1FB95
:103C500005673046394600F0F7FD0546284607B0AF
:103C6000F0BD00230193029303930493059301A8ED
:103C7000FFF7B0FE204BD3F88035002B08DB002384
:103C80000199BDF808209DF80B0048B10220D8E743
:103C90009DF81230022B01D00123F1E70023EFE75A
:103CA0000120CEE7002301938DF8083001A92046BA
:103CB000FFF788FF013C0F4B1B6893F83B309C4299
:103CC00000D301BE04F5C0740B4B53F82430002B15
:103CD00007DB00239DF804109DF805209DF80600E1
:103CE000AFE79DF80830022B01D00123F2E7002353
:103CF000F0E700BF402A00080000264070B5451ECE
:103D0000144B1B6893F83B30AB421DD90E46124A48
:103D100005F5C07152F8213043F0004342F82130DC
:103D2000344603E0012000F0C5F9013C05F5C873F5
:103D3000094A52F8233013F0010F01D1002CF1D1C0
:103D400026B12CB1002002E0044800E0002070BD44
:103D50000348FCE7402A00080000264001004A0012
:103D600002004A00F8B50139072900F21581DFE8A1
:103D700011F00800120013011700130113011301C1
:103D80008300874B1B78002B40F00881854B012274
:103D90001A70002502E00025824B1D702846F8BDF0
:103DA0000024814B1C80814B1C800BE0621E9342DF
:103DB00000D801BE02F5C0727D4B53F82230DB0FF4
:103DC0006BB901347B4B1B6893F83B30A34251D352
:103DD000002CEBD1764BD3F88035DB0FF0E7204693
:103DE000FFF70EFD02280BD0002CEAD1704AD2F862
:103DF000883523F0405343F00053C2F88835E0E79C
:103E0000A4B96B4AD2F8883523F0405343F00053ED
:103E1000C2F8883500212046FFF7C4FC0123A340E7
:103E20009BB2614A11880B431380CAE7621E04F2F9
:103E30007F135F4951F8233013F0405F07D002F53C
:103E4000C07351F82330C3F30173012B06D1012352
:103E5000A3409BB25549088803430B80544902F59F
:103E6000C07251F8223023F0405343F0005341F820
:103E70002230CFE7002591E74B4B1B8853B94C4BC1
:103E8000D3F88035002BC0F283800025454B0022FB
:103E90001A7083E7484C464BD3F8303503F00303E0
:103EA000032B05D0424BD3F830350CB1013CF2E77F
:103EB000002C57D1414DE9E7013C3D4BD3F89035FB
:103EC00013F0010F01D1002CF6D144B186BB384A62
:103ED000D2F8883543F04053C2F8883500250136C2
:103EE000344B1B6893F83B30B342CFD30127B74024
:103EF000BFB22D4B1B881F42F1D002213046FFF785
:103F000051FC002ED9D00AE003F5C873284A52F8B4
:103F1000233013F0010FD8D1002CD6D0013C731EF2
:103F2000244A126892F83B209342EDD301BEEBE79E
:103F30001E4B1B881F420AD01D4A06F27F1152F801
:103F4000213023F0405342F821300025C7E7184ABA
:103F500006F27F1152F8213043F0405342F82130ED
:103F60000025BCE70026154DBAE7013B104AD2F800
:103F7000902512F0010F01D1002BF6D153B10C4A5C
:103F8000D2F8883543F04053C2F8883500257DE7E4
:103F9000094BEBE7094D79E7094DFFE6084DFDE6D2
:103FA0001A2A0008262A0008182A0008242A0008CD
:103FB00000002640402A000840420F000200420054
:103FC000FF00420010B5124B1B6893F83C3098423A
:103FD00000D301BE00F1E0030E4A52F82330C3F3D0
:103FE000011301249C400A4B1B6893F83C30984213
:103FF00000D301BEE030074B53F8200000F00F0063
:10400000FFF706FE00EB5400B0FBF4F010BD00BF5C
:10401000402A0008000026400A4B9A680A4B9A4240
:1040200004D01030094B53F82000704739B100F12B
:104030001003054A52F8230042F82310704701BECE
:10404000F5E700BF00ED00E00020000800200010B0
:1040500030B310B504464368072B00D901BEB4F94C
:1040600000306268002B0EDB5201D2B203F16043D4
:1040700003F5614383F800230A4B9A680A4B9A427E
:1040800008D0002010BD03F00F035201D2B2074840
:10409000C254F1E7B4F90000FFF7BEFF0020F1E7DA
:1040A0000348704700ED00E00020000814ED00E038
:1040B0000100560008B5034B1B7800FB03F0FEF728
:1040C0007BF908BDF4220008054B4FF000429A64CA
:1040D0009B6C002B01DB002070470248704700BF3B
:1040E0000000274003004600044BD3F800085B683B
:1040F00013F0FF0F01D040F48020704700002640ED
:10410000FEE7000008B50268254BDA6142681A62D2
:1041100082685A62C2689A620269DA6242691A6304
:1041200082695A63C2699A631E4A916AD963D16AE5
:104130001964516A5964516B9964926BDA64F1EEB7
:10414000103A13F0900F27D0026A154B1A65426A95
:104150005A65826A9A65C26ADA65026B1A66426BB0
:104160005A66826B9A66C26BDA66026C1A67426C98
:104170005A67826C9A67C26CDA67026DC3F8802056
:10418000426DC3F88420826DC3F88820C26DC3F8E5
:104190008C20026EC3F89020FFF7B2FF08BD00BF6D
:1041A0009827000800ED00E070B4044600282ED0E7
:1041B00019232F4802681668B2F8A450725922F0E9
:1041C00003028B422CBF002301231A437251026861
:1041D0001668B2F8A450725922F440727251026803
:1041E0001668B2F8A650725922F0030213437351B5
:1041F00003681868B3F8A620835823F440738350EB
:104200003CB110291FD9212928D801221CE06423A0
:10421000CFE7174B1B6893F851208A4220D293F8BE
:1042200052208A421ED293F853208A421CD293F81D
:1042300054208A421AD293F855308B4201D205227B
:1042400002E0042200E00022094B1B6859680B6859
:1042500023F00F0313430B6070BC70470222F3E797
:104260000022F1E70122EFE70222EDE70322EBE76C
:10427000402A00084FF0B0539B899BB2FBB14FF02E
:10428000B0539B899BB2B3F5807F18D010B4174B05
:104290001B6823F4407316490A681468D2F8940026
:1042A000225802F44072134323500B681A68D3F863
:1042B000983010490968D1505DF8044B70470C4A9A
:1042C00013681868D3F89410435823F00F0343F091
:1042D0000203435013681968D3F898208B5823F0D1
:1042E0000F0343F002038B50704700BF48180016BD
:1042F000402A0008441800164FF0B0539B899BB227
:10430000FBB14FF0B0539B899BB2B3F5807F18D0BF
:1043100010B4174B1B6823F4407316490A681468DD
:10432000D2F89400225802F44072134323500B68D1
:104330001A68D3F8983010490968D1505DF8044BD9
:1043400070470C4A13681868D3F89410435823F048
:104350000F0343F00303435013681968D3F8982000
:104360008B5823F00F0343F003038B50704700BFBB
:1043700024180016402A0008201800164FF0B053E9
:104380009B899BB2ABB14FF0B0539B899BB2B3F505
:10439000807F0ED00D4B1B6823F440730C4A1268CB
:1043A0001068D2F89410425802F4407213434350FC
:1043B0007047074B1B681968D3F894208B5823F477
:1043C000E04343F4C0438B50704700BF1C180016F5
:1043D000402A00084FF0B0539B899BB2FBB14FF0CD
:1043E000B0539B899BB2B3F5807F18D010B4124BA9
:1043F0001B6823F4407311490A681468D2F89400CA
:10440000225802F44072134323500B681A68D3F801
:1044100098300B490968D1505DF8044B7047074B41
:104420001B681968D3F894208B5823F4E04343F4B5
:1044300080438B50704700BF50180016402A000878
:104440004C18001638B5214B1B681968D3F8942016
:104450008C584FF0B0539B899BB213B304F4406463
:104460004FF0B0539B899BB2B3F5807F19D08B5826
:1044700023F440638B5015490B681D68D3F89400F2
:104480002B58E24302F4406213432B500B681A6826
:10449000D3F89430D05800F44060001B18BF0120BE
:1044A00038BD0E20FFF750F94FF0B0535B782BB1B9
:1044B0004FF0B0535B78DBB2222B04D808B1002058
:1044C000EEE70120ECE70120EAE700BF402A000800
:1044D00008B5124B1B6813F0200F1DD00F4B1B6843
:1044E00013F4000F10D10D4A136843F0B85343F48E
:1044F000802313600120FFF7DDFD084A136843F0B5
:1045000080431360002008BD044A136843F0B05391
:1045100043F480231360EDE70148F4E700002640F0
:104520000400420008B5164B1B6813F4000F11D1AC
:10453000134A136823F0A64323F480231360082052
:10454000FFF7B8FD64230E4A1268002A0ADB4BB15C
:10455000013BF8E70A4A136823F0A44323F48023BD
:104560001360ECE74BB1064A136823F080631360D5
:104570000120FFF79FFD002008BD0248FCE700BFB7
:10458000000026400200420008B5022800D901BE02
:10459000012804D048B1022804D0074801E0FFF701
:1045A000C1FF08BDFFF794FFFBE7044A136843F41B
:1045B000700313600020F4E7FF0042000000264073
:1045C00000283BD00246C368002B39D00368002B7B
:1045D00038D030B405791D4B53F8251031B30C4653
:1045E00000E019464B693BB1914205D0187E117E1F
:1045F0008842F6D81C46F4E7914225D0236943B19E
:1046000063695361146103B11A616261012030BCB6
:104610007047117E237E9942F2D2546100231361C8
:1046200022610A4B43F825200120F0E7074B43F8AD
:1046300025000023436103610120E8E70020704763
:1046400000207047002070470020E0E7282A00087B
:1046500008B5FDF7BAFE074B5A6807490A4042F40D
:1046600068525A605A680A405A605B68FDF7B1FEAA
:1046700008BD00BF00002640FF00FC0FF8B505464E
:10468000012800D901BE4FF0B0535B78B3B14FF0B1
:10469000B0535B78DBB29CB24FF0B0539B899BB2B6
:1046A00073B14FF0B0539F89BFB20E20FFF74CF8A3
:1046B000D0B9B7F5807F06D0294E16E02123EAE76E
:1046C0004FF48077F1E7222C3AD8264B1B685868C4
:1046D0004FF21801435823F080732A0602F08072CB
:1046E00013434350002600E01D4EB7F5807F29D0CC
:1046F000B7F5807F22D01B4B1B6893F82E30012B1F
:1047000023D9184B1B681C6AB3F8AC301C44B7F5AE
:10471000807F1CD005B3144A01212046FEF7E4FD3A
:1047200060B9104B1B68D3F8B030E358002BF8DBAE
:10473000E36803F07F43B3F1204F0FD03046F8BD5C
:10474000074ED2E7222CD6D8D2E701BED9E70DB169
:10475000064AE1E7064ADFE7064ADDE70026EDE71D
:1047600004004200402A00080300000C0101003050
:10477000010000300100000CF8B50446012800D902
:1047800001BEFFF75FFE00284CD0FDF71EFE074676
:104790009CB9254A47F630730021D1504FF0B053F1
:1047A00093F84057EDB20120FFF768FF064608B1C5
:1047B0004EBB1BE0FFF75EFDFAE71C4B19681A4A77
:1047C00047F63073D1504FF0B05393F84157EDB2E4
:1047D0004FF61C71535823F01F0343F00B03535043
:1047E0000320FFF767FCFFF7F5FD00260E494FF6A3
:1047F0001C728B5823F01F0305F01F051D438D50BD
:1048000034B9FFF7BBFD3846FDF7E3FD3046F8BD90
:104810000720FFF74FFCFFF76FFD0020FFF72EFF8B
:104820000646F0E7024EF1E7000026401018001699
:104830000300420008B5FEF771F900B101BE62B68F
:10484000FEE70000704700BF53B94AB9002908BF0E
:1048500000281CBF4FF0FF314FF0FF30FFF7F2BFD1
:10486000ADF1080C6DE904CE00F006F8DDF804E0C7
:10487000DDE9022304B070472DE9F047089E0446A5
:104880008846002B4BD18A42154667D9B2FA82F28C
:104890004AB1C2F1200701FA02F320FA07F7954066
:1048A00047EA030894404FEA154E230CB8FBFEF785
:1048B0001FFA85FC0EFB178843EA084307FB0CF13F
:1048C000994209D9EB1807F1FF3080F01B8199421A
:1048D00040F21881023F2B445B1AA4B2B3FBFEF0F6
:1048E0000EFB103344EA034400FB0CFCA44509D939
:1048F0002C1900F1FF3380F00781A44540F20481B8
:1049000002382C4440EA0740A4EB0C0400271EB1F7
:10491000D4400023C6E900433946BDE8F0878B4206
:1049200009D9002E00F0EB800027C6E900013846C7
:104930003946BDE8F087B3FA83F7002F47D18B42A1
:1049400002D3824200F2FA80841A61EB0303012051
:104950009846002EE0D0C6E90048DDE702B9FFDE48
:10496000B2FA82F2002A40F08F80491B4FEA154EBE
:104970001FFA85F80127B1FBFEFC230C0EFB1C116E
:1049800043EA014308FB0CF1994207D9EB180CF1FB
:10499000FF3002D2994200F2CD808446591AA3B268
:1049A000B1FBFEF00EFB101443EA044408FB00F8D0
:1049B000A04507D92C1900F1FF3302D2A04500F21F
:1049C000B6801846A4EB080440EA0C409FE7C7F104
:1049D000200CBB4022FA0CFE4EEA030E01FA07F44B
:1049E00020FA0CF521FA0CF34FEA1E482543B3FBDD
:1049F000F8F92C0C08FB19331FFA8EFA44EA03432A
:104A000009FB0AF49C4202FA07F200FA07F10BD9FB
:104A10001EEB030309F1FF3080F087809C4240F2D7
:104A20008480A9F1020973441B1BADB2B3FBF8F0FB
:104A300008FB103345EA034400FB0AFAA24508D9F3
:104A40001EEB040400F1FF336BD2A24569D9023892
:104A5000744440EA0940A0FB0289A4EB0A044C45D7
:104A6000C2464B4654D351D0002E69D0B1EB0A0553
:104A700064EB030404FA0CFCFD40FC404CEA050521
:104A8000C6E90054002747E7C2F1200320FA03F7E4
:104A9000954001FA02F021FA03F34FEA154E38432C
:104AA000010CB3FBFEF71FFA85F80EFB173341EA42
:104AB000034107FB08F38B4204FA02F407D9691893
:104AC00007F1FF3C2FD28B422DD9023F2944CB1A4C
:104AD00081B2B3FBFEF00EFB103341EA034100FB51
:104AE00008F38B4207D9691800F1FF3C17D28B42BB
:104AF00015D902382944C91A40EA07473BE7374627
:104B0000304609E70746E7E61846FBE64145ABD2E3
:104B1000B8EB020A69EB0E0201381346A4E76046BF
:104B2000E9E7184695E76746D1E781467CE7023812
:104B30002C4447E7ACF1020C2B442FE7384608E73A
:104B40003746E9E638B5074D074C641BA4101CB97D
:104B5000BDE8384000F03CB8013C55F82430984797
:104B6000F5E700BFD4230008D823000870B50D4E28
:104B70000D4CA41BA4100025A54209D10B4E0C4CD2
:104B800000F020F8A41BA4100025A54205D170BD9B
:104B900056F8253098470135EEE756F82530984706
:104BA0000135F2E7D0230008D0230008D023000805
:104BB000D423000802440346934200D1704703F80F
:104BC000011BF9E7F8B500BFF8BC08BC9E4670476A
:104BD000F8B500BFF8BC08BC9E4670470400000052
:104BE0000907010009070200090707000908010079
:104BF0000908020009080300090804000908050063
:104C0000090806000908070009010000010000006A
:104C10000B0000001D00000000000000000000006C
:104C20000000000000000000010000000000000083
:104C30000000000000000000000000000000000074
:104C400009060700010000000A0000001D00000026
:104C50000000000000000000000000000000000054
:104C60000100000000000000000000000000000043
:104C7000000000000000000009060600010000001E
:104C8000060000001D000000000000000000000001
:104C90000000000000000000010000000000000013
:104CA0000000000000000000000000000000000004
:104CB00009060400010000000000000000000000E0
:104CC00000000000000000000000000000000000E4
:104CD00001000000000000000000000000000000D3
:104CE00000000000000000000900000001000000BA
:104CF00000000000000000000000000000000000B4
:104D000000000000000000000100000000000000A2
:104D10000000000000000000000000000000000093
:104D200009000100F4010000140004010A00090553
:104D300008000300630100000300000003010000FD
:104D40000302000003030000030400000305000049
:104D50001E0105000000000003000000010000002B
:104D600001000000000000000503600004000000D6
:104D700001000000000000000100000006046000C7
:104D800008000000A8290008112A001000000000F7
:104D90000008181C1D1E1F202122232425262C2D2F
:104DA0002F30313738393A3B3C3D000000000000DD
:104DB000001D0000000810182028303840485058C6
:104DC0006068707800080000000001000100010028
:104DD00001003F004000400044007E00F600F80063
:104DE000F900FB00FD00FD00FF00000101010E01C4
:104DF000100130013001000000002040000024407C
:104E0000000000400000000000002340000030408F
:104E10000000314000009F40000022400000104090
:104E200020202020201010101D1D8000170075006C
:104E3000FF03060206360410200000007FC00000B9
:104E400000040000000000000019324B647D008067
:104E50004000080B100000000000FF012002001FAE
:104E600000800004FF081018001000140018001C37
:104E70004044484C500000000810000008000000AA
:104E800004000000041000000012000004210000D3
:104E9000002100000016000040114002C41300135E
:104EA0008013A013200000001C0000000000000080
:084EB000C8F9FF7F01000000BA
:104EB8000020001000200008E0020000D84E00107A
:084EC800E0220008B004000024
:084ED0002C2800081802000064
:104ED80000127A0000127A0000093D000000A00FBD
:104EE800401F000008000000653D001001000000A0
:104EF80000000000C82900080000000000000000B1
:104F0800FF00000000000000020000000000000098
:104F1800040000000000000008000000000000007D
:104F28000100000000000000100000004D2D0010DE
:104F38000100000000000000142300080000000029
:104F4800000000000A0000004D2D001002000000C3
:104F5800000000001C230008000000000000000002
:104F68000A0000004D2D00100300000000000000A2
:104F78002423000800000000000000000A000000D0
:104F88004D2D001000000000000000002C23000838
:104F980000000000000000000A0000004D2D001075
:104FA8000400000000000000342300080000000096
:104FB800000000000A0000008907000089070000BF
:104FC80005230010E122001080B2C10050B3164B37
:104FD8001B681A6AB3F8AC30C3EBC303D358002B71
:104FE800F5DA124B3E221A60043341F61E721A603B
:104FF800A3F584730622C3F8182521F07F41C3F86E
:105008001C15D3F81C35084B1B681A6AB3F8AC306A
:10501800C3EBC303134400225A60054BD3F81C3575
:10502800002BFADA704700BF402A00080401264026
:105038000000264008B54378FF2B00D008BD00F0DB
:1050480093F90E4B1B6893F82E30032B00D801BE42
:105058000A4B1B681A6AB3F8AC3003EB43031344DA
:10506800DB685A68136843F001031360136813F090
:10507800010FFBD100F074F9E0E700BF402A0008F7
:105088002DE9F047074688464C4B1B6893F82E30AD
:10509800012B3CD9494B1B681D6AB3F8AC20154459
:1050A800D3F8B0602E4493F84C20002A66D0444AC6
:1050B8001278002A35D193F82E30052B00D801BE7E
:1050C8003E4B19680A6AB1F8AC3003EB830313440A
:1050D800D1F8B020D358002B6ADB002000F030F95B
:1050E800384B984266D00023374A12680121184687
:1050F80000F03EF968B90024002000F021F9314B96
:10510800984208D0314B9C4205D80134F4E701BEDF
:10511800C0E72F4C47E02D4B9C424DD84FF0010A79
:1051280001E04FF0000A00F01FF98146294BD3F83F
:105138001C35002B0DDB264CBAF1000F05D00121E0
:10514800002000F009F90028F9D1484600F008F9D4
:1051580029E0214A0121284600F0F6F808B11C4C44
:10516800EAE74046FFF730FF37B13368002BFCDB36
:1051780000F002F90446DFE7184CDDE700F0F4F828
:105188008046154A0121284600F0DEF838B96FB18B
:105198003368002BFCDB00F0EFF8044600E00C4C11
:1051A800404600F0DDF82046BDE8F0870B4CF7E7F5
:1051B800074CF8E7064CF6E7054CF4E7402A0008E8
:1051C8000B000016010188000C2A0008EF490200B4
:1051D8000500520000002640FC290008010050008C
:1051E800F8B5294B1B6893F82E30052B00D801BE63
:1051F800254F3A68166AB2F8AC3003EB83031E44B5
:1052080052684FF26003D458A4B200F0ADF80546D6
:105218003A681168D2F88C30CB58013C032C22D85C
:10522800032B24D0002000F093F8174B1B68196853
:10523800D3F880208B581B0E013300EB5300B0FBD2
:10524800F3F08B58C3F30723013300EB5300B0FB93
:10525800F3F00E4BA3FB003080090D4BB3FBF0F0CD
:105268008230FFF7B1FE284600F07AF8F8BD094B06
:105278001B78002BD6D10823B3601168D2F88C3084
:10528800CB58032BF9D0CDE7402A0008D34D621044
:1052980040420F000B000016F0B4234B1B685C68FB
:1052A8001968D3F8903019440CE020BF1F4B1B78C5
:1052B80003B120BF1D4B01221A700B6803F00303D2
:1052C800022B08D11A4A136943F004031361012819
:1052D800EBD030BFF1E7D4F80C311BBB15490E6891
:1052E800154BD3F81855154A106841F61E770F600C
:1052F8000621C3F818153E2111604422C3F81C2565
:105308000D4BD3F81C35002BFADA4FF0AA33C4F84A
:105318000C31084B1E60A3F58473C3F8185503F5C8
:1053280082731860F0BC7047402A00083C2A0008C5
:1053380000ED00E008012640000026400401264058
:105348005FF800F0093700105FF800F0E93200104C
:105358005FF800F0C53F00105FF800F08D360010D0
:105368005FF800F0D32300105FF800F0CB230010A3
:105378005FF800F07D3400105FF800F0852F001012
:0853880000000000000000001D
:04000005100023259F
:00000001FF
