:020000041000EA
:1000000000200008EB0000100D0000004D01001062
:1000100000000000000000000000000000000000E0
:100020000000000000000000000000004901001076
:10003000000000000000000049010010490100100C
:100040004901001049010010490100104901001048
:100050004901001049010010490100104901001038
:100060004901001049010010490100104901001028
:100070004901001049010010490100104901001018
:1000800010B5064C2378002B07D1054B002B02D06E
:10009000044800E000BF0123237010BDB003000836
:1000A0000000000018140010044B10B5002B03D002
:1000B0000349044800E000BF10BDC0460000000036
:1000C000B4030008181400100230800803D0013077
:1000D0000238FCD1C046C0467047EFF3108072B6BC
:1000E000704780F3108870477047FFF7FDFF72B6C6
:1000F0000F4C104DAC4209DA21686268A368043BDA
:1001000002DBC858D050FAE70C34F3E70A490B4A2F
:100110000020521A02DD043A8850FCDC08480949E4
:100120000860BFF34F8F00F085FE00F02FFEFEE762
:10013000241400103C140010B0030008C805000887
:100140000000000808ED00E0FEE7FEE700B504202F
:100150007146084202D0EFF3098001E0EFF3088016
:10016000043000F021FCFEE7014B18607047C046E8
:10017000C4050008044B1B681A00AC3212881B6AC5
:100180005043C0187047C046C40500081D4B984234
:100190000FD010D840282FD005D8002830D01028F4
:1001A00028D019481EE0802828D080235B00984280
:1001B000F7D1144816E0154B984214D008D8A02364
:1001C0001B0698421CD0124B9842EAD1A0200BE0AB
:1001D000104B98420AD0104B984209D00F4B9842CE
:1001E000DFD10F487047A420C003FBE70D48F9E7B3
:1001F0000D48F7E70D48F5E70D48F3E70D48F1E73F
:100200000020EFE706005200FF005200010000F05E
:10021000090000A0040000F0050000F0030000F059
:100220000100520002005200030052000100500081
:10023000020050000500520010B50020FFF79AFFA1
:100240000A4B1C682300B0331B68C0180368002BDE
:100250000ADB074B1868FFF799FF012263689A6071
:100260009A68002AFCD110BD0248FCE7C4050008CA
:10027000CC03000802005000064B1B68B0331B681B
:10028000C3181B68002B03DA89B241600020704755
:100290000148FCE7C405000801008A000368002B40
:1002A00004DA89B2C2608160002070470048FCE730
:1002B00001008A00064B1B68B0331B68C3181B681B
:1002C000002B03DAC36800200B6070470148FCE78D
:1002D000C405000801008A00024B1A68002A00D1F8
:1002E00018607047E0030008F0B52C246043124CFE
:1002F0001F0024681E0A2018FF24274034400F4E98
:100300001B0C356807602E6A44608360AC352D880D
:1003100080346F4364013419BF191E0433430761ED
:100320004461A36000238361059BC2610162002BCD
:1003300001D01B888381F0BDE0030008C4050008DC
:10034000F0B5836885B002AD2B80154B02681B6841
:10035000066A9B8E476A9B186B8043680095826A89
:10036000C16A040003930369C068FFF7BDFF002161
:100370003B000A0000913000FFF7B6FF216B280018
:1003800000F0C6FA0022AB5E002B06DB1F221340F2
:100390001E3A9A401300034A136005B0F0BDC046F0
:1003A000C405000800E100E0F7B52C25134C6843B4
:1003B000266869433418256901937118002D19D0F6
:1003C0008869002818D12E68002E15DA6768012484
:1003D00026004B689E40B44613689EB263461B04D9
:1003E0001E431660EA608C61BC40019BA4B24B6264
:1003F000AC60FEBD0248FCE70248FAE7E0030008F3
:1004000004028A0007028A0073B5002642690400CC
:10041000D56801962B0CB34221D01B0413601368DE
:10042000194B00691B68B0331B68C3181B68B342C3
:1004300015DA01A9FFF73EFFB0420CD10198E2693D
:1004400003681E0CDBB29A4205D9226A9B009B58B6
:10045000002B00D0984731002069FFF70DFFADB2A7
:10046000002D09D063691D6000251B68636AAB42DB
:1004700005D098476562A56163691B6873BDA36A6F
:10048000002BF8D09847F6E7C40500082C2310B5D8
:100490004343034A1068C018FFF7B6FF10BDC046BB
:1004A000E0030008F8B5194B0F001B681A002E3244
:1004B0001278824227D9002925D01F250A681540C5
:1004C00021D11900AC310C88114E60431C6AD2084E
:1004D000041929007868346000F00CFF290020001E
:1004E000FFF7CAFE3A0029003068FFF7D7FE041E66
:1004F00007D101003068FFF7BFFE03002000002B8A
:1005000000D00448F8BD0448FCE7C046C405000814
:10051000E403000801018A0003018A0010B5002AE3
:100520000DD1002914D10B4B1A681300AC331B8872
:100530005843136AC018084B1860080010BD002902
:1005400006D0064B196019005A60FFF7ABFFF5E7BC
:100550000348F3E7C4050008E40300087803000833
:1005600003018A00F7B5184F04003B680191DE686B
:100570003368834226D90025A94202D1FFF7ADFD99
:10058000050038680368002B1ADA1F220123224075
:10059000934064097268A4001419226813420DD0B4
:1005A0009A43226000240021FFF766FE019B002B86
:1005B00002D12800FFF795FD2000FEBD034CF2E7B5
:1005C000034CF3E7034CF7E7E4030008020188005B
:1005D0000301880004018A000A4B1B68DB681A6863
:1005E00082420DD959681F23420918401E3B83409F
:1005F000920050581840431E9841034BC018704752
:100600000248FCE7E40300080001880004018A00B6
:10061000A6220549D2008B580220DB439B0702D05B
:1006200001238858184070470000264010B5FFF796
:10063000EFFF0023022801D1014B1B68180010BDF9
:10064000E8030008094A83009B18D02292009858BA
:1006500007221040042807D1C022920098581F2377
:1006600003408020400018437047C04600002640E9
:1006700010B5FFF7E7FF02281CD005D8002814D0DA
:10068000012814D0002011E01223FF33984214D027
:100690001423FF33984218D0033B9842F2D10C4AFE
:1006A0000C4BD058C00FC00300E00B4810BD0B4BE3
:1006B0001868FBE7FFF7BAFFF8E7094B186904234E
:1006C0001840F3D080200002F0E7014A054BE8E72C
:1006D000000026400C05000000127A00EC03000820
:1006E000000027403C050000B023154ADB00D3582A
:1006F00010B59903DB01DB0F890BC371114B01604E
:10070000D3580F24D904DB01DB0D0381B123DB00B7
:10071000D358C90C818019002140817219092140E8
:10072000C172D9029B009B0F8373074BC90CD3582E
:1007300081815A05DB01520FDB0D8271038210BDEE
:1007400000002640840500008C05000010B5104B09
:10075000421E1B683B331B78934216D97F221F240D
:100760008030FF300B4B8000C3581A400A701A0CBF
:100770002240180A8A701A012040E2404870002086
:100780009B009B0FCA700B7110BD0348FCE7C0466D
:10079000C40500080000264001004A00F0B587B0FB
:1007A0000400FFF765FF0600002C34D101AD1422D0
:1007B0002100280000F09EFD2800FFF795FFB023E0
:1007C000254ADB00D358002B03DAAC7B023C631EC6
:1007D0009C41EA79019F531E9A41A8880132002C5E
:1007E00016D00023190000F06FFC00230C00050058
:1007F0003A003000190000F067FCE6076A0832434F
:100800006308801859412A00230000F03DFC0600CF
:10081000300007B0F0BD114B1B683B331B78A3427F
:10082000F6D301AD05220021280000F063FD200071
:1008300029008034FFF78AFFFF34074BA400E358F8
:100840000024A34203DA2C79023C631E9C412F78DA
:100850006878AA78C3E7C04600002640C4050008AF
:10086000E02210B50124094B80009200C018835883
:1008700080589B069B0F9C400F231840FFF78EFF6C
:1008800063081818210000F073FB10BD000026401B
:10089000144B30B51A680724130028331B781F2B1C
:1008A00015D883081D00A5432C1E0FD1033420400A
:1008B000A040814012689B002032D3180A00FF211B
:1008C00081401C68624011406140196030BD802346
:1008D00020401B06184380239B011268C918890019
:1008E0008850F3E7C4050008064B9A6803000648E1
:1008F00010339B00824202D1985899507047034AA6
:10090000D058FBE700ED00E00000000800000010F8
:10091000F8B506000D0000283AD00023C05E00287C
:1009200028DB7188FFF7B4FF0024FF2203279446D9
:100930000023F05E716883B21F40FF006646BA4034
:1009400089013140D243B940002815DB114E83089C
:100950009B009B19C026B6009F593A4011439951FC
:100960000D4B9A680D4B9A4202D12900FFF7BCFF4C
:100970002000F8BD0A4CD8E70F263340083B064E4E
:100980009B089B009B19DE6932401143D961E7E760
:10099000034CEDE700E100E000ED00E0000000089E
:1009A00001005600FEE7000002680A4B10B51A600D
:1009B00042685A6082689A60C268DA6002691A61A5
:1009C00042695A6182699A61C269DA61FFF7EAFF96
:1009D00010BDC04690030008B0235B059A89002A29
:1009E00002D0988980B2704780204000FBE7000069
:1009F0007FB5274B86000D00F458042901D001294A
:100A000027D100200FE0A3682B420BD1E368290017
:100A10001A685B6802920193039302A823689847BF
:100A20001C4B1C606469002C0BD01B4B9842EAD114
:100A3000012DE8D1174B18481A68184B9A5104B089
:100A400070BD012DFBD1144B9842F3D0134B9C5138
:100A5000F5E7022906D10F4B1B68181EEFD01C6961
:100A600003E01C006369002BFBD10020002CE6D0C2
:100A7000A3682B4209D1E36829001A685B680292D7
:100A80000193039302A8236898472469EEE7C046C0
:100A9000300400082C040008FF004200180400087D
:100AA000194B1B68190004C9C96F51180968016204
:100AB00019000831C96F5218126842621A00413297
:100AC0001278002A1FD09A68E0321268D2061AD52E
:100AD000F222DB68D2019A580260F022D2019A58C1
:100AE00042600A4A9A588260094A9A58C260094A82
:100AF0009A580261084A9A584261084A9A58826193
:100B0000074A9B58C3617047C40500080478000079
:100B1000087800000C7800001078000014780000BD
:100B200018780000194B1B681A1D1968D26F8A18B3
:100B3000016A11601A0008321968D26F8A18416A76
:100B400011601A0041321278002A1ED09A68E032F1
:100B50001268D20619D5F0224168DB68D20199509B
:100B600081680B4A9950C1680A4A995001690A4A3A
:100B700099504169094A99508169094A9950C16956
:100B8000084A99500168E83299507047C405000836
:100B900004780000087800000C780000107800004D
:100BA0001478000018780000B023F7B55B055A7878
:100BB00007002126002A01D05E78F6B2624D6B68EC
:100BC000002B00D07CE0FFF788FA6B680090002BC8
:100BD00000D088E05D4C22681300AC3319880723ED
:100BE0004B43126A9B181A68002AFCDADB68DA00A9
:100BF00020D51B0F1B0756480193FFF751FF55499E
:100C0000212E00D074E0902022680001131DDC6FBB
:100C100013681C1923680B40034323601300083337
:100C20001268DB6FD3181A68114008431860484BEC
:100C3000019A13438022454E9205316813430A00FE
:100C4000AC321088072200244243096A5218D3604C
:100C500054605368FFF7C0FE80235B0098425CD16C
:100C6000380000F05DFB32681300AC3319880723AD
:100C70004B43126A9B181A68002AFCDADF68FB00F3
:100C800003D538010009FFF74DFF334B32681F4091
:100C90001300AC33198807234B43126A00989B1842
:100CA0000022DF605A60FFF71CFA002C0FD16B683E
:100CB000002B03D008210120FFF79AFE2000FEBD83
:100CC00001210800FFF794FE041E00D17BE76B684A
:100CD000002B03D002210120FFF78AFE1F4B9C420C
:100CE000ECD01F4CEAE704210120FFF781FE71E7F9
:100CF000802220685200031DDC6F03681C192368E2
:100D00000B4013432360030008330068DB6FC318F4
:100D1000186801400A431A6089E732681300B0334B
:100D20001B68126A9B181B68002B0ADB04230D4A00
:100D300011690B431361012F01D030BF93E720BF2E
:100D400091E7064C8FE7C04630040008C405000850
:100D5000F0030008FF00FFFFFFFFFFDF0500420078
:100D6000FF00420000ED00E0C02280200649520052
:100D70008B58C0059B009B0803438B5080238858E9
:100D80001B0603438B5070470000264010B562B627
:100D9000034800F0C7F80020FFF706FFFBE7C04656
:100DA0000020001010B50020FFF770FB10BD704749
:100DB00010B50020FFF754FD002829D0154B18600E
:100DC000154B1B681A1D1C68D36FE4182168090EA7
:100DD000013100F0CDF8114B18602168090AC9B241
:100DE000013100F0C5F80E4B441E18600D4920007B
:100DF00000F0BEF8FA210C4B013018708900200079
:100E000000F0B6F8094B01301860094BC0031860B8
:100E100010BDC04684000008C40500088800000812
:100E20008000000840420F00940000089000000875
:100E30008C00000810B52048FFF796F9B022E02199
:100E400030201E4CD200A35889005B005B08A350E1
:100E500063588343635080235B04A350184B194AA3
:100E6000E250A02204339201E250FF22164BE250DE
:100E7000FFF77AFFC02201215200A3588B43A350F1
:100E8000FFF795FFFFF794FF104B03201A6813003C
:100E9000AC33198807234B43126A80219B18002228
:100EA000DA605A600A4AFFF739FB0A48FFF714FA7A
:100EB0000948FFF745FA10BD301300100000264026
:100EC00084050000010002008C050000C405000834
:100ED0008003000844040008E41300109023034A30
:100EE0005B01D058032318407047C04600002040E3
:100EF00010B59024FFF7F1F8074B64011A59074920
:100F00001140074A0A431A51102259681142FCD075
:100F1000FFF7E7F810BDC04600002040FCFF0000CE
:100F20000100FA05F8B590250E4C6D010700FFF79A
:100F3000D4F863590600DB439B0701D1FFF7D8FFC4
:100F400080239B00E7506359074A1A40074B13431D
:100F50006351102362681A42FCD03000FFF7C1F8D9
:100F6000F8BDC04600002040FCFF00000300FA0569
:100F7000002243088B4274D303098B425FD3030AD8
:100F80008B4244D3030B8B4228D3030C8B420DD3EB
:100F9000FF22090212BA030C8B4202D31212090279
:100FA00065D0030B8B4219D300E0090AC30B8B42B7
:100FB00001D3CB03C01A5241830B8B4201D38B0365
:100FC000C01A5241430B8B4201D34B03C01A52410A
:100FD000030B8B4201D30B03C01A5241C30A8B424D
:100FE00001D3CB02C01A5241830A8B4201D38B0238
:100FF000C01A5241430A8B4201D34B02C01A5241DC
:10100000030A8B4201D30B02C01A5241CDD2C3094D
:101010008B4201D3CB01C01A524183098B4201D3C9
:101020008B01C01A524143098B4201D34B01C01AB4
:10103000524103098B4201D30B01C01A5241C3082C
:101040008B4201D3CB00C01A524183088B4201D39B
:101050008B00C01A524143088B4201D34B00C01A87
:101060005241411A00D20146524110467047FFE7F3
:1010700001B5002000F006F802BDC0460029F7D0F7
:1010800076E770477047C046002B11D1002A0FD178
:10109000002900D1002802D00021C943081C07B450
:1010A000024802A14018029003BDC046D9FFFFFFCD
:1010B00003B4684601B5029800F030F8019B9E46E3
:1010C00002B00CBC7047C046F0B5CE46474615048A
:1010D0002D0C2E0080B50704140C3F0C9946030C10
:1010E0007E435D43674363437F19340CE4199C4698
:1010F000A54203D980235B029846C4444B46434330
:101100005143250C36046544360C2404A4195B199C
:10111000591820000CBC90469946F0BDF0B54F46DA
:101120004646D646C0B5040082B00D0091469846AA
:101130008B422FD82CD04146484600F0CFF82900EA
:101140000600200000F0CAF8331A9C46203B9A465D
:1011500000D576E04B46524693401F004B46624610
:1011600093401E00AF4228D825D05346A41BBD4152
:10117000002B00DA7BE00022002300920193012380
:10118000524693400193012362469340009318E036
:101190008242D0D900220023009201930A9B002BA7
:1011A00001D01C605D600098019902B01CBC9046A3
:1011B0009946A246F0BDA342D7D90022002300924F
:1011C00001936346002BE9D0FB079846414672081D
:1011D0000A437B0866460EE0AB4201D1A2420CD81E
:1011E000A41A9D41012024196D410021013E2418BB
:1011F0004D41002E06D0AB42EED9013E24196D417F
:10120000002EF8D100980199534600196941002B2E
:1012100023DB2B005246D3402A006446E2401C00E8
:1012200053461500002B2DDB26005746BE403300E9
:1012300026006746BE403200801A99410090019115
:10124000ACE7624620239B1A4A46DA406146130007
:1012500042468A4017001F4380E7624620239B1ABC
:101260002A0066469A402300F3401343D4E76246BF
:10127000202300219B1A0022009101920122DA40D2
:10128000019280E72023624626009B1ADE402F0051
:10129000B0466646B74046463B003343C8E7C046C3
:1012A0001C2101231B04984201D3000C10391B0A96
:1012B000984201D3000A08391B09984201D300095A
:1012C000043902A2105C40187047C04604030202B1
:1012D00001010101000000000000000010B500291C
:1012E00003D1FFF7DDFF203002E0081CFFF7D8FF35
:1012F00010BDC04603001218934200D17047197008
:101300000133F9E7F8B5C046F8BC08BC9E46704703
:10131000F8B5C046F8BC08BC9E4670470000000007
:1013200001B40248844601BC604700BF6102000866
:1013300000002040000024400000004000000000A9
:1013400000002340000030400000314000009F407A
:10135000000022400000104020202020201010100B
:101360001D1D800017007500FF03060206360410DD
:10137000200000007FC0000000040000000000000A
:101380000019324B647D00804000080B1000000003
:101390000000FF012002001F00800004FF08101859
:1013A000001000140018001C4044484C500000007D
:1013B00008100000080000000400000004100000F5
:1013C00000120000042100000021000000160000AF
:1013D00040114002C41300138013A013200000002A
:1013E0001C000000030000000100000001000000DC
:1013F0000000000005036000040000000100000080
:101400000000000001000000060460000800000069
:10141000A4050008A50D00100000000000FDFF7FDE
:101420000100000000000010000000088000000023
:101430004414001080000008F8020000B003000807
:101440001802000000093D0000127A0000093D006A
:101450000000D007A00F000004000000A900001049
:101460008100001080B230B5C00020D0104B0722A0
:101470001C682300AC331B885A43236AD3181968AD
:101480000029FCDA3E210B4B062519600A4B0B495B
:101490001960A3210A4BC9005D500A495850585899
:1014A000206A1218002050605A58002AFCDA30BD19
:1014B000C405000804012640080126401E1F000044
:1014C000000026401C05000010B54378FF2B11D109
:1014D00000F0ECF80400032000F018F9C3685A6823
:1014E000012311681943116011681942FCD12000D1
:1014F00000F0F4F810BDF7B500900020019100F065
:1015000005F93F4D06002B681A004C33B0321468C1
:101510001B780419002B5AD000F0E8F807000328C4
:101520001BD000F0C3F8374A374B0500D358002BC7
:101530003EDA364A0121300000F0C0F8002837D1E9
:101540000198FFF78FFF009B002B3ED02368002BF4
:10155000FCDB00F0EBF804002BE0062000F0D6F8EE
:101560002B68B0331B68C0180368002B02DA284CC4
:101570002000FEBD002000F0C1F8264B9842F6D0B6
:101580000023254A19001268012000F09FF8002569
:10159000A842ECD1002000F0B1F81E4A1F4B904247
:1015A00003D09D42E3D00135F4E79D42B9D1DEE797
:1015B000174C032F05D10121002000F0AFF80028BF
:1015C000F9D1280000F08AF8D2E7154CF1E700F0D5
:1015D0006DF80E4A05000121300000F06FF8002878
:1015E00009D1009B002B08D02368002BFCDB00F006
:1015F0009DF80400E5E7064CE3E7094CE1E7C04647
:10160000C4050008000026401C050000CC030008AB
:101610000500520001018800DC030008F0490200C7
:1016200001005000184BF7B51B68184A5C6804238A
:1016300011690B431361012824D030BF2300FC3310
:101640001B69002B1DD1A320114B1249124AC00067
:101650000F681E5815680195104D0D6006251D5028
:101660003E2010600E483E351D501D58002DFCDAFE
:101670000C48FC3420610F60A321C9005E50019B1F
:101680001360F7BD20BFD9E7C405000800ED00E0F6
:101690000000264008012640040126401E1F0000CD
:1016A0001C050000AAAAAAAA0000000001B4024872
:1016B000844601BC604700BFDB00001001B4024853
:1016C000844601BC604700BF9D02001001B402487F
:1016D000844601BC604700BFA903001001B4024862
:1016E000844601BC604700BFE300001001B402481B
:1016F000844601BC604700BFDD0E001001B4024803
:10170000844601BC604700BFD905001001B40248FF
:10171000844601BC604700BF7501001001B4024857
:10172000844601BC604700BF6505001001B4024853
:10173000844601BC604700BF390200100000000071
:101740000000000000000000000000000000000099
:041750000000000095
:1020000000F80F08252300100D0000009923001090
:10201000992300109923001099230010000000005C
:1020200000000000000000000000000095230010E8
:102030009523001000000000952300109523001048
:102040009523001095230010952300109523001070
:102050009523001095230010952300109523001060
:102060009523001095230010952300109523001050
:102070009523001095230010952300109523001040
:1022E00010B5054C237833B9044B13B10448AFF350
:1022F00000800123237010BD242A00080000000084
:1023000050AD001008B5034B1BB103490348AFF3B0
:10231000008008BD00000000282A000850AD001011
:1023200070477047FFF7FCFF72B6144C144DAC4277
:1023300009DA21686268A368043BA2BFC858D0507C
:10234000FAE70C34F3E70F490F4A00209142BCBF73
:1023500041F8040BFAE70D480D490860BFF34F8FB1
:1023600000F0BAFB00F09EFBFFF7DBFF05F0C0FAC0
:1023700004F0DCFC05F0A8FAFEE700005CAD0010FC
:1023800074AD0010242A0008FC2D0008002000086D
:1023900008ED00E0FEE7FEE700B5042071460842C4
:1023A00002D0EFF3098001E0EFF30880043003F07E
:1023B000D5FFFEE7000000000230800803D00130A6
:1023C0000238FCD100BF00BF7047EFF3108072B637
:1023D000704780F31088704708B500F0C9F800F026
:1023E00007F800F0B7F800F02DF800F039F808BD54
:1023F00008B5124A136899684FF08040C1F800048C
:102400009868B3F87010435843F47F434350126800
:1024100092F86F1003238B4092F86C1092F86E00C4
:1024200081400B43916843F00043C1F80034936846
:10243000D3F80034024800F0B9FC08BD302D000884
:1024400024A30010054B1B6893F83D202F2A03D9C5
:102450009B680022C3F8BC2C704700BF302D0008D9
:1024600010B5264C264A0021204602F085FA254860
:1024700000F09CFC244A0121204602F07DFA23480A
:1024800000F094FC224800F091FC04F54074214ACD
:102490000421204602F070FA1F4800F087FC1F4A12
:1024A0000621204602F068FA1D4800F07FFC1D4A14
:1024B0000721204602F060FA1B4800F077FC1B4819
:1024C00000F074FC1A4800F071FC1A4800F06EFC31
:1024D000194800F06BFC194800F068FC184800F03F
:1024E00065FC184800F062FC174800F05FFC1748D4
:1024F00000F05CFC164800F059FC10BD00003140B3
:10250000FCA3001030A4001034A4001068A4001034
:1025100050A30010C4A30010F8A300108CA3001057
:10252000C0A3001054A3001088A3001028A300101B
:102530002CA3001030A3001034A3001038A3001007
:102540003CA3001040A3001044A3001048A30010B7
:102550004CA30010044B332242F208015A5042F2BD
:1025600010015A50704700BF00003040FEE70000E5
:1025700070B582B09621002003F042FF03F0E0FE28
:1025800000283BD0012004F023FA012004F028F9B0
:102590006E4A536C23F47F4343F468535364536C83
:1025A000C3F307233A2B46D0694B1B6893F83C20B2
:1025B00032B16849D1F8802322F03002C1F880237B
:1025C0001968D3F884208B5823F47F438B50604ADA
:1025D00013681868D3F88010435823F07F4343F002
:1025E0008073435013681868D3F88010435823F45D
:1025F0007F434350136893F83B5026E003F090FE6E
:10260000544BD3F8803113F0010F06D1514AD2F860
:102610000C3523F00043C2F80C354E4BD3F80C2593
:1026200042F00042C3F80C25D3F80C2542F0010219
:10263000C3F80C25A6E7536C23F0005323F468532A
:1026400043F468535364AFE7013DDDB16C1E404B6A
:102650001B6893F83B309C42F6D23E4E05F27F1445
:1026600056F8243023F0405343F0005346F824300A
:10267000012003F04BFE56F8243023F0004346F8C7
:102680002430E1E70021012003F0A0F9304B1B6862
:1026900093F83C3003B901BE2E4BD3F8803313F0CE
:1026A0000F0F3BD02B4BD3F8882522F0405242F03D
:1026B0000052C3F88825D3F8802522F00042C3F8E1
:1026C0008025D3F88C2522F00042C3F88C25002108
:1026D000084603F07BF91E4B1B6893F83C3033B17E
:1026E0001C4AD2F8803323F00F03C2F880331A4D0E
:1026F00000240094234622462146284602F056FA3A
:102700000094234622460121284602F04FFA0F4A40
:10271000136843F008031360104C25E0002003F019
:1027200083F940F211139842BCD1094B1B6893F80E
:102730003C30002BB6D0074AD2F8803323F00F0389
:1027400043F00103C2F88033ACE700BF000027402C
:10275000302D0008000026400000314040420F00AC
:10276000012003F0D3FD013C9C4B1B6913F0040FC7
:1027700001D1002CF4D1002C00F019810023002B92
:1027800040F01781964AD2F8003523F0030343F056
:102790000103C2F80035934C23681968D3F88420EC
:1027A0008B5823F47F438B5023681968D3F880201B
:1027B0008B5823F07F438B5023681968D3F880200F
:1027C0008B5823F47F438B500021012003F0FEF847
:1027D000236893F83C3043B1814AD2F8803323F028
:1027E0000F0343F00103C2F880330021084603F0D1
:1027F000EDF80021022003F0E9F80021032003F0A6
:10280000E5F80021042003F0E1F80021052003F0A1
:10281000DDF8754803F070F9002840F0CE80734869
:1028200003F01AFA002840F0CC806E4B1B6893F836
:102830003C2032B16A49D1F8802322F00F02C1F85E
:10284000802393F83C3033B1654AD2F8803323F0CB
:102850003003C2F880330021012003F0B7F8644947
:10286000022003F05BFA002840F0AF8042F21071C2
:10287000022003F057FB002840F0AB80594B1B6847
:1028800093F83C20022A06D95549D1F8882322F032
:102890000F02C1F8882393F83C20022A08D9504936
:1028A000D1F8882322F0300242F01002C1F88823C8
:1028B00093F83C30022B06D9494AD2F8883343F0CA
:1028C0000043C2F88833474B1B6893F83C20032A27
:1028D00008D94349D1F88C2322F00F0242F00202BA
:1028E000C1F88C2393F83C20032A06D93C49D1F83F
:1028F0008C2322F03002C1F88C2393F83C30032B58
:1029000006D9374AD2F88C3343F00043C2F88C33EF
:10291000344B1B6893F83C20042A06D93049D1F87F
:10292000902322F00F02C1F8902393F83C20042A50
:1029300006D92B49D1F8902322F03002C1F8902318
:1029400093F83C30042B06D9254AD2F8903343F053
:102950000043C2F89033214A136823F44073136094
:102960001F4BD3F80C2542F00042C3F80C25D3F8D6
:102970000C2542F00102C3F80C256421002003F06D
:102980003FFD00F04BF81B4800F010FA1A4800F029
:102990000DFA1A4800F00AFA194800F007FA194827
:1029A00000F004FA184800F001FA02B070BD174BAD
:1029B000E5E60520FFF7DAFDE4E60420FFF7D6FDA3
:1029C0002DE70420FFF7D2FD2FE70320FFF7CEFD10
:1029D0004CE70320FFF7CAFD50E700BF0000274087
:1029E00000002640302D00086CA40010400D0300AC
:1029F00098A4001080A4001084A4001088A40010E3
:102A00008CA4001090A4001094A4001002004A00AE
:102A100008B5012002F094FA08BD704708B50020FF
:102A200003F0E4FB58B30346154A1060154A1168D9
:102A30000868D1F880208258120E0132B3FBF2F2FE
:102A4000114802600868D1F884208258C2F3072236
:102A50000132B3FBF2F30D4A1360013B0C4AA2FBB7
:102A60000312920C01320B490A700B4AA2FB03239A
:102A70009B090133094A1360DB03094A136008BD4F
:102A8000E4220008302D0008E8220008E0220008B7
:102A900083DE1B43F4220008D34D6210F0220008AD
:102AA000EC22000808B5094801F0E6FEFFF7B5FF83
:102AB000FFF7B4FF00221146032002F08BFA04480E
:102AC00002F00AF9034802F05BF908BDA0A7001064
:102AD000402A0008A0A4001008B5FFF776FC074ABA
:102AE000D2F8883043F47003C2F88830BFF34F8FB8
:102AF000BFF36F8FFFF76DFC08BD00BF00ED00E076
:102B000008B5044803F088FE08B1002008BD02485B
:102B1000FCE700BFF82200080000020610B500F034
:102B200043F9044620B1FFF757FC2CB1204610BDF5
:102B300000F084FC0446F6E7FFF7E2FF0446F5E701
:102B40002DE9F04782B081460D461AB14FF0030AD5
:102B5000144F1BE08A46FBE70134AFB1A04513DDFB
:102B600004238DF804308DF80550E6B28DF8066028
:102B70000DEB030000F01AF90028EDD189F80050A0
:102B800089F801600027E7E70135EDB237B1554517
:102B900004D8054B13F805800024DEE7384602B060
:102BA000BDE8F08702010204D4A4001000B583B090
:102BB00004238DF8043003788DF8053043788DF8C0
:102BC000063001A800F036F903B05DF804FB0828D0
:102BD0001AD8DFE800F00723051C090B0D0F1100C0
:102BE0000A2015E0082070470C2011E00D200FE0AE
:102BF0000E200DE00F200BE04B1EDBB2012B01D9A4
:102C0000082005E00E2003E001BE082000E00B20B4
:102C1000012900D0704700F0070070470020F9E755
:102C20002DE9F04387B0884617461E4609238DF8E4
:102C30000830C5088DF8095000F007048DF80A40E7
:102C4000029BADF814301B0C8DF81630059BADF8C7
:102C500010301B0C8DF81230049BADF80C301B0C9F
:102C60008DF80E3003A800F0A1F8814618B148464F
:102C700007B0BDE8F08341463846FFF7A8FF02469B
:102C80000E2D0BD8074B1B68986900EBC51000236D
:102C900000933346214601F089FFE8E7014B1B68AA
:102CA0009869F4E7302D0008F0B4032820D00E46D0
:102CB00011460746334A32F81050421C162A1AD8D9
:102CC000D2B2304C34F812400122BA402E4F3A4270
:102CD0004ED0821E122A19D8DFE802F01B181D18E8
:102CE0001810121418181818181818181818160090
:102CF0000D260420DDE740F23114E5E7234A0BE01E
:102D0000234A09E0234A07E0234A05E001BE1C806C
:102D100030E0224A00E0224A1C805AB302381228CE
:102D200013D8DFE800F00A121512120A0C0E121264
:102D300012121212121212121000012709E00227B9
:102D400007E0102705E0022703E001BE002700E0AE
:102D50001A27BE420ED2905D284411FA80F11980E4
:102D6000711CB94206DA164474782C44A4B201E00E
:102D700035441D801B88A34202D20020F0BC70475E
:102D80000848FBE714A5001094031000F8A40010F5
:102D9000FCA4001000A5001010A50010D8A400107D
:102DA000DCA400100001020400207047F0B583B0DD
:102DB0000446FFF70AFB06460DF10603A278617888
:102DC0002078FFF771FF054670B9BDF80630C3F3F0
:102DD000C70203F007031549895C012202FA03F3D5
:102DE000194214BF1746002705B9EFB92DB1304677
:102DF000FFF7EFFA284603B0F0BD0DF10603A27805
:102E000061782078FFF750FF05460028EFD1BDF824
:102E10000630C3F3C70103F00703044801229A40B8
:102E2000435C13434354E2E7014DE0E7C82B00083D
:102E30000101020430B583B00446FFF7C6FA054627
:102E40000DF10603A27861782078FFF72DFF014687
:102E500060B9BDF80630C3F3C70003F00703074CA1
:102E600001229A40235C23EA0203235401B101BEEC
:102E70002846FFF7AEFA03B030BD00BFC82B0008EC
:102E80002DE9F04782B007468A46534B33F810309D
:102E9000421C162A17D8D2B24F4931F812804FF08F
:102EA000010909FA07F929F07F4929F46F0929F482
:102EB0007C4929F06B09A8EB03081FFA88F8002465
:102EC0002646254644E040F23118E8E78AF80070CB
:102ED0008AF801508AF8026079E0404A0BE0404AE3
:102EE00009E0404A07E0404A05E0404A03E001BEED
:102EF000002200E03E4ABB1E122B13D8DFE803F08D
:102F00000A121512120A0C0E1212121212121212B8
:102F100012121000012309E0022307E0102305E04C
:102F2000022303E001BE002300E01A23691C99423A
:102F300004DA2A445278631C9A4202D00136F6B26F
:102F400004E0CDB2002601E00135EDB20134A4B2B7
:102F500044453BD28DF804708DF805508DF806601D
:102F600001A8FFF723FF03460028AFD0B9F1000FF7
:102F7000EAD0BB1E122BBAD801A252F823F000BF30
:102F8000DB2E0010EF2E0010F52E0010EF2E00109B
:102F9000EF2E0010DF2E0010E32E0010E72E0010A1
:102FA000EF2E0010EF2E0010EF2E0010EF2E00106D
:102FB000EF2E0010EF2E0010EF2E0010EF2E00105D
:102FC000EF2E0010EF2E0010EB2E0010094B1846CC
:102FD00002B0BDE8F08700BF14A50010D8A400100F
:102FE000F8A40010FCA4001000A5001010A500100B
:102FF000DCA400100201020470B582B00179CB0894
:103000000E2B16D8114A1268956905EBC315837902
:10301000467901F0070400930123324621462846F1
:1030200001F0C4FD0A2E08D00B2E0AD0002002B0F9
:1030300070BD064B1B689D69E9E70121A140A960AD
:10304000F4E70121A1406960F0E700BF302D0008DE
:1030500010B582B00146C3080E2B0DD9094B1B6871
:103060009869002400940123082201F0070101F06F
:103070009DFD204602B010BD024A1268906900EB27
:10308000C310EEE7302D000838B5094B53F8204047
:10309000084B53F8205044B12DB1002318460BB90A
:1030A0002046A84738BD0123F8E70123F6E700BF13
:1030B000242C0008F02B00082DE9F0410646884634
:1030C000084601F0B0FB05460024012718E0022263
:1030D00031462846FFF7D8FF0135EDB2AC42F6D8AD
:1030E000B8F1020F1BD0B8F1080F18D0B8F1010FDA
:1030F00018D1BFB10D4B01221A7013E00134E4B2B4
:103100000C2CEDD82A4631462046FFF7BDFF074676
:103110000028F3D1B8F1010FF0D10025DEE7034B11
:1031200000221A703846BDE8F08100BF582C000814
:10313000123820282AD8DFE800F01F292929292958
:103140002929292929292929292929292929291107
:103150002C131517191B1D2123252700002070474C
:1031600002207047032070470420704705207047F5
:1031700006207047072070470820704709207047D5
:103180000A2070470B2070470C20704701BE0020BA
:10319000704701207047000008B5EFF30580103834
:1031A00000B2FFF7C5FF024B53F8200008BD00BF77
:1031B000242C00082DE9F04180460E4617460024D5
:1031C00000E00134BC420ED206EBC4052B79434526
:1031D000F7D156F83400FFF7E9FD0028F1D128684F
:1031E000FFF728FE00E000252846BDE8F08100003A
:1031F000014B1878704700BF582C000808B5124BD7
:1032000043F82010114B43F8202000231A4601E018
:103210000133DBB20C2B08D80B4850F823000028F0
:10322000F6D0012A07D00132F2E72AB901B101BE76
:10323000074800F0FBF808BD012AFCD10029FAD0AC
:10324000034800F0DBF8F6E7242C0008F02B000818
:1032500014230008F8B504460F4615461E4603E041
:1032600001233B70DBB1E46840F289739C4216D0C5
:103270002368002BF7D0227935EA0202F3D1627974
:1032800036EA0202EFD0A268314628469847002865
:10329000E6D1012E01D00123E3E70023E1E7204638
:1032A000F8BD70B504460D46164600E0E468AC4231
:1032B0000FD02368002BF9D0227936EA0202F5D12B
:1032C000627912F0020FF1D1A268022130469847CC
:1032D000ECE770BDCB680BB1012070470020704750
:1032E00038B504460D46FFF770F8236840F289723E
:1032F000934208D0AB4202D003F10C04F5E7EB682F
:1033000023600023EB60FFF764F838BD2DE9F0413E
:1033100082B00479022C01D101290FD0084601F0B6
:1033200096FA054601238DF8073002280CD00828AC
:103330000AD02D4B1F682D4B1E6809E02C4B1B88B3
:10334000002BEBD02B481CE0274B1E68274B1F6837
:103350002B4622460DF107013046FFF77BFF8046E2
:103360009DF8073083B938469DF807300BB9012D19
:1033700012D0102C1BD0082C26D09DF8073083B318
:10338000002002B0BDE8F0812B4622460DF1070176
:103390003846FFF75FFFE7E7224601463846FFF76A
:1033A00080FF224641463046FFF77BFFE1E7042DD0
:1033B000E1D1002002F01AFF0F49A1FB0031890C76
:1033C000012003F01DF8D6E7082DD6D1002002F029
:1033D0000DFF0949A1FB0031890C002003F010F812
:1033E000CBE70448CDE700BFD8230008DC23000862
:1033F0005A2C0008FF00420083DE1B4370B50446D0
:1034000080B1FEF7E2FF0646074B1D6821462846BD
:10341000FFF760FF10B9E560034B1C603046FEF714
:10342000D8FF70BD01BEECE7D823000808B50146FF
:103430000148FFF755FF08BDD823000808B5144B15
:103440005B6813F4003F15D1124803F0E5F9A0B111
:10345000114803F0E1F990B1104803F0DDF980B1B3
:103460000F4803F0D9F970B10E4803F0D5F960B1F7
:10347000002003E003F018FAE6E70B4808BD0A480D
:10348000FCE70948FAE70848F8E70748F6E700BF0D
:1034900000002640A02300084C23000868230008F1
:1034A00084230008BC23000801160204022905D069
:1034B00008292BD0012950D0012070472B4B002226
:1034C0001A70012070470133DBB2294A02EB011266
:1034D000127B9A420DD9264A02EB0112527B1A4402
:1034E000244E56F82220002AEDD001229A401043A3
:1034F000E9E700B1A8600134E4B2012C09D8214603
:1035000023011B4AD55800231846DEE770B4002477
:10351000F3E7164B00221A70012070BC704701338C
:10352000DBB2134A02EB0012127B9A4212D9104A04
:1035300002EB0012527B1A440E4951F82220002A55
:10354000EDD01268191D02EB81125268002AE6DAEA
:10355000002070470130C0B200E00020012801D8EF
:103560000023DEE70120014B18707047DC2C0008B7
:1035700094A500105C2C000838B5EFF305811039D4
:1035800089B208B2002301E00133DBB2012B10D86D
:10359000174A02EB0312927B9042F5DB144C04EBCA
:1035A0000314247B1444A042EEDACCB2A41AE4B291
:1035B00000E00024012B01D901BE38BD0C4A1B01DB
:1035C000D118D5584B7B23440A4A52F8232053691B
:1035D0002BB105EB8411D1F830119069984705EBB8
:1035E00084140323C4F83031D4F83031E5E700BF48
:1035F00094A500105C2C000800231F2B06D8054A58
:1036000052F8232022B90133DBB2F6E700207047DD
:10361000012070475C2C0008014B1878704700BFF0
:10362000DC2C000810B50446FFF7E6FF50B16279C4
:10363000064B03EB02135B7BA2791344044A42F866
:10364000234010BD0348FFF7D9FEF0E794A5001012
:103650005C2C0008E023000838B50446002837D069
:103660006279394B03EB02139B7BA27913441AB2A4
:1036700003F01F035209012101FA03F320323349F9
:1036800041F82230BFF34F8FBFF36F8FE01D01F081
:10369000AAF82368CBB162792B4B03EB02135B7B57
:1036A000A27913442A4A002142F82310FFF7A4FF0D
:1036B00080B12268A17901238B405360201DFFF760
:1036C000B9FB0023236017232371637B33B938BD13
:1036D00001BEC5E71F48FFF7A9FEEAE7237A627A31
:1036E000032B2AD80BB9072A06D9012B1FD0022B8E
:1036F00020D0032B23D122BB1749096891F86D50C4
:10370000AB400320A840034091F86C000240896858
:10371000134343F08043C1F80034002303B101BEDA
:1037200004F10800FFF742FA00236373CFE70F2A82
:10373000E2D9DCE7032ADFD9DBE7084BEEE7074BEA
:10374000ECE7064BEAE700BF94A5001000E100E0BB
:103750005C2C0008E0230008302D000801004A001E
:103760002DE9F04182B005468846174643781B4E46
:1037700006EB03135C7B83781C44E4B2FEF725FE62
:10378000174B53F82430C3F814809F61FEF721FED5
:103790006B7806EB0316B47BAB781C4425B26A0940
:1037A000104B53F8223004F01F02D34013F0010FE6
:1037B00010D1ADF80050072301930B49684602F081
:1037C0005BFD04F01F046D09012303FA04F4054BAB
:1037D00043F8254002B0BDE8F08100BF94A5001079
:1037E0005C2C000800E100E079350010F0B49DF891
:1037F00010608D7800EB8514D4F838413EB122EA90
:10380000040700EB8515C5F83071D5F830518D7877
:10381000B6B1144300EB8510C0F8384148780A4A25
:1038200002EB0012927B89780A4412B25B01DBB290
:1038300002F1604202F5614282F80033F0BC704749
:1038400024EA0204E6E700BF94A50010427B002AA8
:1038500000F0E280F8B50C460546002002F0C6FCF8
:10386000724B1B681A68D3F88030D3581B0E013393
:1038700000EB5300B0FBF3F3B3FBF4F4002C00F0C7
:10388000CD802B7A6A7A032B00F28E800BB9072A3F
:103890000BD9012B00F08280022B00F08280032BD9
:1038A00040F08480002A40F083806049096891F8E4
:1038B0006D60B3400320B040034091F86C000240BB
:1038C0008968134343F08043C1F800340023002B80
:1038D00040F0A680297A687A621E00296AD10728FA
:1038E00000F28480FF2A00F28380504909688E68C4
:1038F000B1F870100E4456F8201021F47F411202E6
:1039000092B20A4346F82020002B40F08B802A7A9E
:103910006E7A032A7AD80AB9072E07D9012A6FD0FE
:10392000022A70D0032A73D1002E73D13F49086850
:1039300090F86F10032707FA01F190F86CE090F807
:103940006EC00EFA0CFC41EA0C0190F86DC002FA50
:103950000CF207FA0CF73A400A4306EA0E068168B1
:10396000324342F00042C1F800248268D2F80024B9
:10397000002B59D1002002F039FC2C4B1B681A682F
:10398000D3F88030D3581B0E013300EB5300B0FB4B
:10399000F3F3B3FBF4F42C61002040E00F2A84D948
:1039A0007AE7032A81D97AE7214B90E7204B8EE70B
:1039B0001F4B8CE701291DD10F281DD8B2F5803F80
:1039C0001CD21A4909688E68B1F872100E4456F874
:1039D000201021F47F0121F47F41120222F07F4266
:1039E00022F0FF020A4346F820208DE7104B8BE7B8
:1039F0000F4B89E70E4B87E70D4B85E70C4B83E7B1
:103A00000F2E93D98CE7032E90D98BE7084BAFE7A5
:103A1000074BADE7064BABE7064870470648F8BDD5
:103A20000548FCE70448FAE70348F8E7302D0008AA
:103A300001004A000318020401180204F8B5044604
:103A400020B1FF2904D07A4D2846F8BD01BEF8E721
:103A5000164624220021204603F081FF211D142058
:103A6000FFF70EFA05460028EED16379714A1B0173
:103A7000D118D35823600F79A3791F44FFB2002EC9
:103A800075D03068A06033792373002002F0AEFB5C
:103A9000694B1B681A68D3F88030D3581B0E01336A
:103AA00000EB5300B0FBF3F3217A627A012900D9CD
:103AB00001BE00293FD1072A00D901BE5E4908682E
:103AC0008168B0F87000014451F82220C2F3072247
:103AD0000132B3FBF2F2226133787178564A1268F0
:103AE00092F83D0087423AD2032B3AD80BB9072906
:103AF00007D9012B2DD0022B2ED0032B33D1002937
:103B000033D192F86D60B3400320B040034092F887
:103B10006C00014092680B4307F5407742F827306C
:103B20000023002B72D1002D69D0002D70D02046CB
:103B3000FFF792FD88E70F2A00D901BE3E490868C9
:103B40008168B0F87200014451F82220C2F30F22BC
:103B5000BEE70F29D5D9CEE70329D2D9CDE7374B18
:103B6000DFE7364BDDE7354BDBE7344BD9E70022A7
:103B7000012104F10800FEF7E3FF05460028D2D139
:103B8000012363732E492046FFF760FE0546002897
:103B9000C9D1237A617A284A126892F83D00874297
:103BA00025D2032B25D80BB9072906D9012B18D00C
:103BB000022B19D0032B1ED1F9B992F86D60B340D6
:103BC0000320B040034092F86C00014092680B4320
:103BD00007F5407742F827300023002BA3D0194D7A
:103BE000A3E70F29E9D9E3E70329E6D9E2E7134B75
:103BF000F3E7124BF1E7114BEFE7104BEDE7124AF9
:103C0000A179206802F042FF05468EE70D4D8CE752
:103C10002046FFF707FD2368A27903EB82130022F9
:103C2000C3F838212268A17901238B4093600BE708
:103C30000018020494A50010302D000801004A006D
:103C400040420F0001180204B4A5001010B504464C
:103C500040B1FFF7E1FC38B92268A17901238B401C
:103C6000936110BD01BEF4E70048FAE703160204B1
:103C7000034630B11A68997901238B4053610020C3
:103C8000704701BEF6E710B40246D8B110689479C7
:103C9000231D00EB83135B6823F0020183F0010313
:103CA00003EAD17351EA43030ED411689479106A80
:103CB00001EB8411C1F80801002B0ADB00205DF83C
:103CC000044B704701BEE1E7012101FA04F44461AD
:103CD000EBE711689279012393408B61EEE70000D6
:103CE00070B594B004460D46CB6803624C221C4963
:103CF00001A803F029FE6B680193AB6806932B784B
:103D000083F001030393AB781BB3002305936B7817
:103D1000012B22D0022B1ED0002304932068A1790E
:103D200000EB8113D3F8386101AA02F039FF01AA30
:103D3000A179206802F0AAFE05462368A27903EB68
:103D40008213C3F838612046FFF79DFF284614B060
:103D500070BD0223DAE70323DFE70123DDE700BFBD
:103D6000B4A50010012805D0022801D0002070471A
:103D700003207047022070470138032809D8DFE884
:103D800000F0020B0406022070470620704708204E
:103D9000704701BE0220704704207047814206D858
:103DA000411A642303FB01F1B1FBF0F07047091ADB
:103DB000642303FB01F1B1FBF0F0704708B5FFF796
:103DC000EBF900F11401006801F054FD08BD00009A
:103DD00038B505460C46002002F008FA084B1B686F
:103DE0001A68D3F88030D3581B0E013300EB530010
:103DF000B0FBF3F005FB0444B0FBF4F038BD00BFAA
:103E0000302D00082DE9F04105460824FF262746FD
:103E100001E00134E4B2102C22D805FB04F80020A4
:103E200002F0E4F9104B1B681A68D3F88030D358BD
:103E30001B0E013300EB5300B0FBF3F000EB580016
:103E4000B0FBF8F021460138FFF7C2FF01462846D3
:103E5000FFF7A4FFC0B28642DBD906462746D8E763
:103E60003846BDE8F08100BF302D00082DE9F04351
:103E700083B006461546034653F8142B009201936F
:103E8000027AFF2A0DD0D3080E2B05D8964909686F
:103E9000896901EBC31806E0934B1B68D3F81880BF
:103EA00001E04FF00008B37AFF2B0CD0D9080E299F
:103EB00005D88D480068876907EBC11704E08A4977
:103EC00009688F6900E0002702F0070903F0070482
:103ED0002946684601F08AFC6A1E072A00F2F6802D
:103EE000DFE812F008009000F400F700F400F4009E
:103EF000F4009000002840F0F080B8F1000F33D0BB
:103F0000794B1A689369A8EB0303DB0952691B011B
:103F1000D118B9F1030F53D9A9F104024B68D200AB
:103F2000D34003F01F0386F89030012303FA09F30E
:103F3000C8F808306C4B1A689369A8EB03084FEA7D
:103F4000D81853694FEA081803EB0801B9F1030FB9
:103F50003DD9A9F104024B684FEAC2091F2202FAB7
:103F600009F223EA02034B60002F00F0B8805E4B99
:103F70001A689369FB1ADB0952691B01D118032CDB
:103F800031D9221F4B68D200D34003F01F0386F8BB
:103F900091300123A340BB60534B1A689369FF1A09
:103FA000FF0952693F01D119032C22D9231F4A6806
:103FB000DC001F23A34022EA03034B60012089E0B9
:103FC000D3584FEAC902D34003F01F03ABE753F8BD
:103FD00008104FEAC9091F2202FA09F221EA020277
:103FE00043F80820C0E7D358E200D34003F01F0392
:103FF000CDE7D159E4001F23A34021EA0303D351A5
:10400000012067E0B8F1000F22D096F8903033F02D
:104010001F0200D001BE344A12689169A8EB010862
:104020004FEAD81851694FEA081801EB0800B9F1B6
:10403000030F2ED9A9F104024168D2001F25954033
:1040400021EA050103F01F0303FA02F20A4342606A
:10405000002F46D096F8912032F01F0300D001BE09
:10406000214B1B6899697F1AFF0959693F01CD19D6
:10407000032C1DD9231F6968DB001F20984021EA0B
:10408000000102F01F0202FA03F30B436B600120F0
:1040900020E051F808004FEAC9021F25954020EAA8
:1040A000050003F01F039340034341F80830CFE7B6
:1040B000C859E3001F259D4020EA050002F01F02B9
:1040C00002FA03F30343CB51012003E001BE0120B8
:1040D00000E0012003B0BDE8F0830020FAE70120F2
:1040E000F8E70120F6E700BF302D000810B50446C0
:1040F00078B32379172B1AD06279194B33F9123020
:10410000002B0CDB03F01F015B0901228A402033E6
:10411000144941F82320BFF34F8FBFF36F8F201D49
:10412000FEF788FE002211466079FFF767F8E01D70
:1041300000F059FB04F1080000F055FB04F10A00FF
:1041400000F051FB04F1090000F04DFBE37A13B1DC
:1041500010BD01BECDE704F10C00FEF727FDF7E727
:1041600078A5001000E100E02DE9F04104460E467C
:1041700017460021006801F08DFA237B627B032B38
:104180001CD80BB9072A08D9012B00F0AF80022BED
:1041900000F0B080032B11D182B9A749096891F8CA
:1041A0006D50AB400320A840034091F86C000240E2
:1041B0008968134343F08043C1F800343046FFF769
:1041C00021FE0546206506FB00F8002002F00EF8EF
:1041D000994B1B681A68D3F88030D3581B0E0133F3
:1041E00000EB5300B0FBF3F000EB5800B0FBF8F02D
:1041F0000138227B931EDBB2012B7FD9637B002A1F
:1042000040F0DD80072B00F2F880FF2800F2F880F4
:10421000894A12689168B2F87020114451F823203D
:1042200022F47F424FEA002C1FFA8CFC42EA0C0277
:1042300041F823204FF000082946FFF7C9FD014649
:1042400007B138603046FFF7A9FD0A2800F2E48084
:10425000237B607B032B2CD80BB9072808D9012BB3
:1042600000F0DD80022B00F0DE80032B21D100BBAB
:10427000714A116891F86F20032606FA02F291F84C
:104280006C7091F86EC007FA0CFC42EA0C0291F8CF
:104290006DC003FA0CF306FA0CF6334013433840B2
:1042A0008A68034343F00043C2F800348B68D3F8B4
:1042B000003494F86830002B00F0B9804FF480335C
:1042C000626D082A40F2B58000221343013D05F0DB
:1042D0000F051D43236845F000751D6022681368B3
:1042E00043F0004313604046BDE8F0810F2A7FF69B
:1042F00054AF4CE7032A7FF650AF4BE7637B022AAB
:1043000024D0032A52D1002B53D1B0F1807F53D255
:10431000DFF824C1DCF800209168B2F8762011445F
:1043200051F82320D2B242EA002241F82320DCF8DF
:1043300000108A68B1F876100A4452F8231021F070
:10434000F80142F823104FF0000875E7032B27D837
:10435000B0F5803F27D2DFF8E0E0DEF800108A6891
:10436000B1F874C094445CF8232022F47F0222F454
:104370007F42010221F07F4121F0FF010A434CF806
:104380002320DEF800108A68B1F874100A4452F84D
:10439000231021F0F80142F823104FF000084BE7FA
:1043A000DFF8988048E7DFF8948045E7DFF88C80F5
:1043B00042E7DFF888803FE7DFF880803CE7012AAA
:1043C00021D10F2B22D8B0F5803F22D21A4A116892
:1043D0008A68B1F872C094445CF8232022F47F020A
:1043E00022F47F42010221F07F4121F0FF010A43C4
:1043F0004CF823204FF000081EE7DFF840801BE751
:10440000DFF8388018E7DFF8348015E7DFF82C8014
:1044100012E7DFF828800FE7DFF8248018E70F287D
:104420007FF626AF1EE703287FF622AF1DE70023A5
:1044300046E74FF4006248E7302D000801004A00CB
:10444000031A01042DE9F04784B0884691469A4644
:104450000446002800F0BA809C220021204603F088
:104460007EFA172323710123E372FF23E371237282
:104470006372A372132288494046FEF79BFE0646EC
:10448000132286494846FEF795FE0546002E00F0A9
:10449000F980002800F0F8800168306800F0AFF97A
:1044A000002800F0F3802B681A889B78ADF80C2068
:1044B0008DF80E3003A8FEF779FC0746002840F07F
:1044C000E680039BA3801A0CA271C3F30723744AEE
:1044D00052F8233023603146404600F02BF907465E
:1044E000002875D057B9BAF1000F7DD00123E372CF
:1044F000DAF80000E0609AF804302374002F7DD0D1
:10450000002F5DD104F14C05664E0FCE0FC50FCEC6
:104510000FC50FCE0FC596E80F0085E80F000C9B66
:10452000002B00F09F800C9B1B6863650C9B187927
:10453000FFF722FC84F859000C9B187AFFF712FC55
:1045400084F85A0004F114052A4604F14C0120684D
:1045500000F022FF0C9BD96829B12B460C9A1269F6
:10456000206801F0A3F80023C4F89430C4F8983010
:10457000C4F88C3063794C4D35F91330ADF8043004
:1045800007230293494901A801F076FE637935F9C2
:104590001330002B07DB03F01F015B0901228A4067
:1045A000434941F82320434A21466079FEF726FE1D
:1045B000E37A002B5ED02268136843F00043136057
:1045C000002F64D02046FFF791FD60E001BE43E775
:1045D00084F808802946484600F0ACF807460028D1
:1045E00080D184F807907DE70023E3720122114611
:1045F00004F10C00FEF7A4FA07467FE76279237BFB
:10460000607B2D49096891F83D50AA4222D2032BC4
:1046100022D80BB9072806D9012B15D0022B16D0AA
:10462000032B1BD1E0B991F86D60B3400325B54071
:104630002B4091F86C5028408968034302F5407282
:1046400041F8223000275BE70F28ECD9E6E7032882
:10465000E9D9E5E7194F53E7184F51E7174F4FE7EF
:10466000164F4DE704F1140204F14C01206800F0EC
:1046700093FE78E700224FF4E1312046FFF774FD06
:1046800007469DE70E4F02E00D4F00E00C4F384605
:1046900004B0BDE8F08700BF08A7001070A60010A6
:1046A00044A5001000A6001078A50010BD3D001024
:1046B00000E100E06D3E0010302D000801004A00CE
:1046C000001A0204F8B506460F461546FEF790FD9F
:1046D000A8B93368D3F840332C4602E03368D3F8E6
:1046E0004033B3F1FF3F07D1002DF7D04CB101208B
:1046F00001F0F4FD013CF1E73B700020F8BD0248F9
:10470000FCE70248FAE700BF03160204021A02049B
:1047100038B504460D46FEF76BFD28B1044806E0A7
:104720002946206800F021FD0028F9D0002038BD7E
:104730000316020430B585B00C4609238DF800300D
:10474000C3088DF8013000F007008DF80200009BCF
:10475000ADF80C301B0C8DF80E30039BADF8083013
:104760001B0C8DF80A30029BADF804301B0C8DF841
:10477000063001A8FEF71AFB054610B1284605B021
:1047800030BD2046FEF738FC05460028F6D001A8CB
:10479000FEF750FBF2E710B584B00446FEF758FC74
:1047A00000B101BE09238DF80030E3088DF8013017
:1047B00004F007048DF80240009BADF80C301B0C90
:1047C0008DF80E30039BADF808301B0C8DF80A30C5
:1047D000029BADF804301B0C8DF8063001A8FEF7E3
:1047E00029FB04B010BD0378FF2B07D010B5044699
:1047F0001846FFF7D0FFFF23237010BD70470278E3
:104800000B789A4201D00020704742784B789A4248
:1048100001D00020704782788B789A4201D0002026
:10482000704701207047013807280BD8DFE800F0F7
:10483000040D0A060A0A0A0801207047042070477E
:104840000820704701BE01207047022070470138E0
:1048500007280BD8DFE800F0040D0A060A0A0A0848
:1048600001207047042070470820704701BE0120D6
:104870007047022070470000014B1860704700BF6E
:10488000302D00081D4B98422FD00ED91C4B98425A
:1048900031D019D91B4B984223D00133984222D0F2
:1048A000023B98421BD01848704740281FD006D9B9
:1048B00080281ED0B0F5807FF5D11048704760B1D8
:1048C0001028F0D111487047B0F1204F05D0104B9F
:1048D0009842E8D14FF4A0007047002070470D487F
:1048E00070470D4870470D487047044870470C48A2
:1048F00070470C4870474FF4A40070470600520000
:10490000010000F0040000F0FF0052000100500020
:10491000090000A0010052000200520003005200F2
:10492000020050000500520010B5104B1B6893F8B0
:104930002E30012B16D90D4B1C68236AB4F8AC201D
:104940001344D4F8B020D358002B0DDB084B186863
:10495000FFF798FF636801229A6063689B68002BE9
:10496000FBD110BD01BEE6E70248FAE7302D000892
:10497000E02C000802005000002800F00F81F0B584
:104980000446002A00F00C81072900D901BE1368F3
:10499000012B00D901BE536833F00F0300D001BED4
:1049A000137A33F01F0300D001BED368032B00D964
:1049B00001BE1369012B00D901BE5369012B00D937
:1049C00001BE9369012B00D901BED369032B00D925
:1049D00001BE136A012B00D901BE536A012B00D915
:1049E00001BE936A012B00D901BED36A032B00D903
:1049F00001BE136B072B00D901BE1368072900D92C
:104A000001BE012B00D901BE002B40F0B480012370
:104A10008B4063605368072900D901BE33F00F0053
:104A200000D001BE8F005F48006890F8796030596F
:104A30000F25BD4020EA050003F00F03BB400343F0
:104A40003351107A072900D901BE30F01F0300D07E
:104A500001BE544B1D68AB69E31ADB096D691B018C
:104A6000EE18032940F28B800B1F7568DB001F27AF
:104A70009F4025EA070500F01F009840284370601A
:104A8000D068082900D901BE032800D901BE4B0017
:104A9000444D2D6895F878703D5903269E4025EACF
:104AA000060500F00300984028433851156908298D
:104AB00000D901BE012D00D901BEA069012606FA68
:104AC00001F76FEA070C00EA0C0035408D40054302
:104AD000A5615069072900D901BE012800D901BE8E
:104AE000304D2E6896F87AE054F80E6006EA0C060F
:104AF00000F001008840304344F80E0003F1100C30
:104B0000032606FA0CF63E432B6893F87B70E359B4
:104B100023EA0606936903F001038B403343D0690F
:104B200000F0030000FA0CF00343E3512B6893F804
:104B30007C00255825F0FF05136A03F00103566A2F
:104B4000760006F002063343966AB60006F00406C5
:104B50003343D66AF60006F018063343126B52014F
:104B6000D2B21343890001F47E7103FA01F12943A3
:104B700021500020F0BD01238B40A3604AE7EE588E
:104B80004FEAC10C1F2707FA0CF726EA070600F0C8
:104B90001F0000FA0CF03043E85071E702487047FC
:104BA0000148E7E7302D000801005A00F0B49DF8F5
:104BB0001040072900D901BE32F00F0500D001BE18
:104BC000012B00D901BE34F01F0500D001BE0568DD
:104BD00001268E4025EA060503F001038B402B4396
:104BE00003601E4B1B6893F8796033588F000F25C4
:104BF000BD4023EA050302F00F02BA401A433250C7
:104C0000072900D901BE34F01F0300D001BE134BA9
:104C10001B689A69801AC0095B6900011D18032985
:104C20000ED904396B68C9001F228A4023EA0203A7
:104C300004F01F0404FA01F119436960F0BC7047E5
:104C40001A58C9001F258D4022EA050204F01F04EE
:104C500004FA01F111431950F0E700BF302D0008AC
:104C6000084B1B68D3F8B0301B58002B07DA0B0C2D
:104C70001B0403B101BE89B24160002070470248A5
:104C8000704700BF302D000801008A000368002B28
:104C900008DAC2600B0C1B0403B101BE89B281604B
:104CA000002070470048704701008A000A4651B151
:104CB000074B1B68D3F8B0301B58002B05DAC368CC
:104CC00013600020704701BEF2E70248704700BF42
:104CD000302D000801008A00034B1B6803B17047A8
:104CE000014B1860FBE700BFF42C0008F0B4049EF1
:104CF000214C2468002C3DD01F4C27682C2404FB39
:104D000000F03C18DDB23D50C3F3072060601B0C7F
:104D1000A3601A4B1B6893F82E309D4200D301BE4E
:104D2000164B1B68186AB3F8AC7007FB05052561C4
:104D3000606893F82F30984200D301BE0F4B1B6878
:104D40001B6A803003EB40136361A568280C0004E4
:104D500000B101BE00B101BEA8B240EA05409860B2
:104D6000E26121620023A36116B1B6F90030A3818C
:104D7000F0BC704701BEBFE7F42C0008302D0008DE
:104D8000F0B58FB00446002840D0A369072B00D9A6
:104D900001BEE36A002B3BD0236B002B3AD007AD5A
:104DA00004F114060FCE0FC537682F6002AD2646FA
:104DB0000FCE0FC533682B60174B1B689B8E079A6D
:104DC0001344ADF83030089B0D93A26AE16A0CAD34
:104DD00000953B460A98FFF789FF00210091069B4A
:104DE0000A460598FFF782FF216B284601F044FA36
:104DF000BDF93030002B07DB03F01F015B090122F6
:104E00008A40064941F823200FB0F0BD01BEBCE73F
:104E100001BEC1E701BEC2E7302D000800E100E09D
:104E2000F0B416464AB31A4A126842B3184A1268D6
:104E30002C2404FB002004FB01214A68012404FA0D
:104E400002F212044568AC400569D5B18F69D7B943
:104E50002D68002D19DA35882A4332600269D66040
:104E600001228A614B620269230C1B0403B101BE5B
:104E7000A4B294600020F0BC704701BED3E701BE2D
:104E8000D4E70448F7E70448F5E70348F3E700BF31
:104E9000F42C000804028A0007028A0070B582B070
:104EA00000230193044628B323692BB363692BB312
:104EB000236A2BB36369DD682A0C0BD02A0C120419
:104EC0001A601B6820691D4B1B68D3F8B0301B5853
:104ED000002B17DBADB24DB163691D601B68636ABF
:104EE0003BB39847002363620023A36163691B6897
:104EF00002B070BD01BED7E701BED7E701BED7E75C
:104F000001BED7E701A9FFF7D1FE60B90198036898
:104F10001E0CDBB2E2699A4206D9226A52F82330AB
:104F200013B1984700E0002631462069FFF798FE4C
:104F3000D0E7A36A002BD7D09847D5E7302D0008DB
:104F400008B5064B1B683BB1044B1B682C2202FBC7
:104F50000030FFF7A3FF08BD01BEF5E7F42C000801
:104F6000184B1B6893F82E20824223D921B30A687C
:104F700012F01F0F22D170B50D461C6AB3F8AC3089
:104F800003FB0044104E3460D2080021686802F030
:104F9000E6FC00212046FFF763FE2A460021306828
:104FA000FFF774FE60B900213068FFF759FE40B189
:104FB000064806E0064870470548704704487047B1
:104FC000024870BD302D0008F82C000801018A004D
:104FD00003018A0008B513464AB1E3B1E9B11A46A4
:104FE0000B460F490B604A60FFF7BAFF08BD002966
:104FF000F3D10C4B1B6893F82E30984200D301BEBE
:10500000084B1B681A6AB3F8AC3003FB0020064B50
:1050100018600020EAE70548E8E70448E6E700BF33
:1050200088290008302D0008F82C000803018A00A8
:105030002DE9F041194B1B68DD682B6883422BD9A1
:105040000C46460900F01F00012303FA00F851B195
:105050000027124B18680368002B08DB104DBCB109
:105060002846BDE8F081FDF7B0F90746F1E76A6828
:1050700052F8263013EA080F08D023EA080342F852
:10508000263000250021FFF7EBFDE8E7054DF9E7A5
:105090003846FDF79EF9E3E7034DE1E7F82C0008F9
:1050A000030188000201880004018A000B4B1B6881
:1050B000DB681A6882420ED9410900F01F00012204
:1050C00002FA00F05B6853F82130034201D1044832
:1050D0007047044870470448704700BFF82C000828
:1050E000000188000101880004018A00084B1B6848
:1050F0005B6CC34013F0010F00D101BE044B1B6871
:105100001B6910308002185800F00F00704700BF74
:10511000302D000810B4D0F8003303F00F03072B34
:105120000AD900230FE0D0F84043CC540133934216
:10513000F9D35DF8044B70470023F8E7D0F84043FB
:1051400021F8134001339342F8D3F2E710B5144627
:10515000D0F80833C3F308039A4204D22246FFF77B
:10516000D9FF204610BD1C46F8E7036813F4006F12
:105170000AD08022D0F80832C3F30803934205D046
:10518000C0F84012012070474022F3E7002070472A
:1051900010B4D0F8003203F00F03072B0AD9002314
:1051A0000FE0CC5CC0F8404201339342F9D35DF884
:1051B000044B70470023F8E731F81340C0F8404231
:1051C00001339342F8D3F2E710B51446036813F4A1
:1051D000006F0CD08023D0F80822C2F308029B1A7B
:1051E000A34206D92246FFF7D3FF204610BD402335
:1051F000F1E71C46F6E7036813F4006F07D080233D
:105200005B08026D12F0FF0203D11846704740237D
:10521000F6E71346F9E770B505460C46FFF7EBFFD6
:105220000646A169E26901B102B901BE2846FFF74D
:105230008DFF236A03442362E3691B1AE3614BBBBE
:10524000A3681BB3E368B3421CD3013E2B6813F47D
:10525000006F19D080239E4200D301BED5F80433DD
:1052600023F0FF03F6B21E43C5F804630123C5F81B
:10527000C83F636823F001036360236B0BB1042014
:10528000984770BD5E1EE1E74023E4E70023C5F8C0
:10529000C83FEEE7A269D5F8001301F00F01072916
:1052A00000D940001044A061B342EAD2013B2A6811
:1052B00012F4006F0CD08022934200D301BED5F8C7
:1052C000042322F0FF02DBB21343C5F80433D8E70E
:1052D0004022F1E72DE9F04105460C46036813F43E
:1052E000006F27D08027D5F8006206F00F06A26A6B
:1052F000012A14D9D4F82480E262013AB8F1000FEF
:1053000000D002B901BE41462846FFF75DFFA36AFF
:105310001B1AA362072E00D9400040446062D5F8F2
:105320000832C3F308039F4202D0A36A012B03D0C3
:10533000BDE8F0814027D6E70023A362072E27D8D7
:10534000636A1E78FDF741F8C5F840624FF40073B8
:10535000C5F8803FD5F8803FFDF73BF8D5F8883F8A
:1053600023F4007222F0010242F4007223F4EE638F
:1053700023F0030303B101BEC5F8882F236843F06F
:1053800002032360236B002BD2D001209847CFE784
:10539000636A1E88D6E70000002800F0718103468A
:1053A000002900F06F8130B40878022800D901BECE
:1053B000487B0238C0B2062800D901BE887B20B1E4
:1053C000022802D0032800D001BE91F82100012854
:1053D00000D901BE91F82800012800D901BE087843
:1053E00001280AD9887F002800F09A80486801388F
:1053F000062800F29780002005E048680838082851
:1054000094BF0020012000B101BE8868053804283F
:1054100000D901BE4869FF2800D901BE8869FF286C
:1054200000D901BE887C28B1087810B9886809289D
:105430007AD001BE486B20F4366020F00D0000B138
:1054400001BEC86B20F4EE6020F0030000B101BE85
:10545000087802286CD04C68013C087F00286CD08A
:105460004FF480308D68082D69D84FF400652843CB
:1054700004F00F04204340F000701860086B1C68B3
:1054800014F4006F5DD08024A04200D301BE886B6D
:105490001C6814F4006F56D08024A04200D301BED3
:1054A000486A1C6814F4006F4FD08024A04200D3D7
:1054B00001BE0878000600F040701864487F00289C
:1054C00045D040208C7C002C43D04FF48064204396
:1054D0000C7C002C3FD04FF4807420434C7C002C7B
:1054E0003BD04FF400742043CC6A013C240404F404
:1054F000702420434C7B013C04F0070420438C7B48
:10550000240104F0300420439864087B38B34FF43E
:105510008070CC7B44BB0C78022C22D0002425E088
:10552000002070E701206EE7887B002882D080E7AA
:10553000887F00288FD100248FE7002092E7002584
:1055400095E74024A0E74024A7E74024AEE70020E9
:10555000B8E70024BBE70024BFE70024C3E700202E
:10556000D7E74FF4007401E04FF4007404438868F7
:10557000013800F00F002043C3F800030C7D886958
:10558000000400F47F002043C3F81003CC6AD3F872
:10559000000300F00F000330844201D3102C00D927
:1055A00001BEC87F20B10878012859D0002400E04E
:1055B0000024487B013800F0070020438C7B240145
:1055C00004F0300420435864087B00284BD04FF48B
:1055D00080748868013800F00F0020430C78012C9B
:1055E00043D000242043C3F8000291F83000C3F8F0
:1055F000040391F8200000283AD04FF0007091F891
:105600002140012C36D00024204391F82840012C61
:1056100033D00024204391F824402043186591F8AA
:105620003800C3F80402486B20F4926020F00200B6
:105630000005000DC3F8C80FC96B21F08C014905A6
:10564000490DC3F8881FFAB10020506010609060C7
:10565000D0601062D06210630C4B536330BC704753
:105660004FF48074A5E70024B3E74FF48034B9E722
:105670000020C4E74FF08074C6E74FF48034C9E7D8
:1056800003487047024870470020E7E7EFCDAB00C2
:105690000160AA00036823F00043036021B10022E7
:1056A0004A600A600A62CA6270470000F8B51E4686
:1056B00053B1756B184B9D4200D001BE01B102B9C8
:1056C00001BE01B112B9F8BD01BEF2E714460D46A4
:1056D0000746FFF790FDB560F46000233361736106
:1056E000844214D3421E3B6813F4006F11D0802310
:1056F0009A4200D301BED7F8044324F0FF04D2B28B
:105700002243C7F804230123C7F8C83FDBE7621E22
:10571000E9E74023ECE700BFEFCDAB0008694B6938
:10572000834204D9CB694A699B1A184470474B6974
:10573000C01A70472DE9F04107460D46FFF75BFDA3
:105740008046D7F80863C6F308062C6931E00024C8
:1057500035E02B6B0BB1082098476B69A34231D120
:105760000023C7F8C83FECB1013C2C61EC68294626
:105770003846FFF7D3FF201A804511D968B30138A6
:105780003B6813F4006F2AD08023984200D301BEF7
:10579000D7F8043323F0FF03C0B21843C7F804035B
:1057A000BDE8F081EC68013CDFE7AB6823F814202A
:1057B000013E002ED9D00134EB68A342C7D06B69FB
:1057C000A342C6D0D7F84023D7F8003303F00F0325
:1057D000072BEAD8AB681A55EAE70020D0E7402348
:1057E000D3E74868704708687047000038B5046818
:1057F0004568022928D008292CD0012901D01C484D
:1058000027E029462046FFF7EEFF10F0010F27D1D1
:1058100029462046FFF7E5FF10F0010F22D1D4F80A
:105820000832C3F30803D4F80822C2F3C032D342CB
:105830001AD1D4F80833C3F30803BBB9294620466C
:10584000FFF728FF002004E0236843F000432360B3
:10585000002038BD236843F0004323600020F8E7B0
:105860000348F6E70248F4E70148F2E70048F0E7AA
:10587000FF00420038B504460D46D0F8003E13F054
:10588000080F3FD0D0F8CC3F13F448730AD04A68D1
:105890001A434A60C0F8C03FD0F8C03F0B6B0BB151
:1058A00010209847D4F8CC3F13F4006F09D06B68F0
:1058B00043F400636B604FF40063C4F8C03FD4F856
:1058C000C03FD4F8CC3F13F0010F0DD0EB69002B93
:1058D00052D1AB681BB129462046FFF72BFF0123AD
:1058E000C4F8C03FD4F8C03FD4F8CC3F13F0040F45
:1058F00008D02B6B0BB1402098470423C4F8C03F5D
:10590000D4F8C03FD4F8003E13F0040F33D0D4F8DD
:105910008C3F13F4A0630AD02A681A432A60C4F8A3
:10592000803FD4F8803F2B6B0BB120209847D4F8F0
:105930008C3F13F0010F24D1D4F88C3F13F4007F77
:105940000BD00022C4F8882F2B6823F001032B60B2
:10595000EA622B6B0BB102209847D4F88C3F13F00E
:10596000100F08D02B6B0BB1802098471023C4F880
:10597000803FD4F8803F38BD29462046FFF74BFCD6
:10598000ADE729462046FFF7A5FC0123C4F8803F78
:10599000D4F8803FD0E70000014B1868704700BF83
:1059A000042D0008074BD3F8303503F00303032B15
:1059B00004D0044BD3F8303500207047024B1868F0
:1059C000704700BF00002640002D0008134B1B68E5
:1059D00093F83A3083421DD9042904D9A1F5807384
:1059E0009BB2132B18D8FF2907D801F00701D0303C
:1059F0000B4B43F820100020704701F01F01084BAB
:105A000000F1C00243F82210D030042243F82020D5
:105A1000002070470348704702487047302D000847
:105A20000000264001004A000C4B1B6893F83A30F6
:105A3000834200D801BE00F1D003094A52F8233056
:105A400003F00703042B01D018467047C03052F80A
:105A5000203003F01F0343F48073F5E7302D000876
:105A60000000264008B5204B1B6893F83A3083426B
:105A700000D801BEFFF7D8FF022813D00CD940F29E
:105A8000111398421BD040F2131398421FD0B0F567
:105A9000887F0AD0002008BD18B30128FAD1FFF78B
:105AA0007BFFF8E7FFF77EFFF5E7104BD3F80C35E7
:105AB000002B01DB0020EEE74FF40040EBE70C4B3E
:105AC000186910F00400E6D04FF40040E3E7074BFC
:105AD000D3F83C35002B01DB0020DCE74FF400401D
:105AE000D9E70448D7E700BF302D00080000264062
:105AF0000000274000127A00034600286FD03B4A7E
:105B0000D2F88025002A6EDB1A68B2F5802F00D308
:105B100001BE1A68C2F31102D979002961D04FF091
:105B200080710A433149C1F880259A88B2F5005F37
:105B300000D301BE1A89B2F5007F00D301BE9A8856
:105B4000C2F30C0218892A4901EA00410A43274995
:105B5000C1F884259A7A0F2A00D901BEDA7A0F2A71
:105B600000D901BE9A89B2F5005F00D301BE9A7ACE
:105B700002F00F02D97A0901C9B20A4398891D4976
:105B800001EA00210A43997B090701F040510A43C9
:105B90001649C1F888259A79042A00D901BE1A8AC3
:105BA000B2F5007F00D301BE1048D0F88C2522F456
:105BB000E0629979090201F4E0610A43C0F88C259A
:105BC000D0F88C2522F0FF7222F48032198A084B1B
:105BD00003EA01431A43C0F88C250020704701BE38
:105BE0008DE700219DE70448704700BF0000264074
:105BF0000000FF0100FF1F0003004A00034638B306
:105C00001449D1F88025C2F311001860C2F3006274
:105C1000DA71D1F88425C2F30C009880C2F30842EF
:105C20001A81D1F8882502F00F009872C2F3031090
:105C3000D872C2F30C209881C2F301729A73D1F822
:105C40008C25C2F302219971C2F308421A8270476F
:105C500001BED5E70000264038B505462D4AD2F8EA
:105C60008C3543F00043C2F88C35044603E0012034
:105C700000F04CFB013C274BD3F8903513F0040F98
:105C800001D1002CF3D1234AD2F8883523F04053B8
:105C900043F00053C2F8883505B15CB11D4AD2F813
:105CA000803543F00043C2F8803503E0012000F066
:105CB0002DFB013C174BD3F8903513F0010F01D1A8
:105CC000002CF3D105B154B1124AD2F8883543F013
:105CD0004053C2F88835C5B1CCB1002016E00D4B59
:105CE000D3F8882522F0405242F00052C3F88825AC
:105CF000D3F8802522F00042C3F88025D3F88C2504
:105D000022F00042C3F88C25E5E7002038BD0248A8
:105D1000FCE700BF0000264002004A002F4B1B6832
:105D200093F83B3083424AD30138834200D801BE06
:105D300000F5C0732A4A52F82330002B41DB8A78E1
:105D4000931EDBB20E2B3ED84B78002B3DD0122B8E
:105D50003DD870B40C78CD786DB31326B44238D3E7
:105D60005DB33826B44236D80E79022E12D004F034
:105D70007F041B0203F4F8532343120402F4F812C5
:105D80001A43ED0605F000652A4300F5C073144C74
:105D900044F82320124C00F5C07054F8203023F052
:105DA00040530A79120702F04052134344F820305E
:105DB000002070BC70471626D0E77026D2E709484D
:105DC00070470948704707487047064870470548BC
:105DD00070470448EDE70348EBE700BF302D0008AB
:105DE0000000264001004A0003004A0001380F4B22
:105DF0001B6893F83B30834215D900F5C0700C4BFB
:105E000053F8203003F07F020A70C3F304224A7073
:105E1000C3F304428A70C3F3C062CA70C3F3017350
:105E20000B71002070470348704700BF302D0008F9
:105E30000000264001004A00F0B587B00446374B09
:105E40001B6893F83A30834200D801BE2046FFF722
:105E500009FE0546CCB1314B1B6893F83B30A34299
:105E600034D2002318461A4619465BB1A2FB002320
:105E70005F084FEA3206E1FB05673046394601F01C
:105E8000A5FB0546284607B0F0BD00230193029309
:105E900003930493059301A8FFF7B0FE204BD3F8BA
:105EA0008035002B08DB00230199BDF808209DF800
:105EB0000B0048B10220D8E79DF81230022B01D028
:105EC0000123F1E70023EFE70120CEE70023019350
:105ED0008DF8083001A92046FFF788FF013C0F4BE1
:105EE0001B6893F83B309C4200D301BE04F5C0749C
:105EF0000B4B53F82430002B07DB00239DF80410D4
:105F00009DF805209DF80600AFE79DF80830022BAC
:105F100001D00123F2E70023F0E700BF302D000895
:105F20000000264070B5451E144B1B6893F83B30AB
:105F3000AB421DD90E46124A05F5C07152F8213008
:105F400043F0004342F82130344603E0012000F0E2
:105F5000DDF9013C05F5C873094A52F8233013F006
:105F6000010F01D1002CF1D126B12CB1002002E0AB
:105F7000044800E0002070BD0348FCE7302D000815
:105F80000000264001004A0002004A00F8B501392D
:105F9000072900F21581DFE811F008001200130153
:105FA00017001301130113018300874B1B78002B8B
:105FB00040F00881854B01221A70002502E000257F
:105FC000824B1D702846F8BD0024814B1C80814BFC
:105FD0001C800BE0621E934200D801BE02F5C07225
:105FE0007D4B53F82230DB0F6BB901347B4B1B68C0
:105FF00093F83B30A34251D3002CEBD1764BD3F82E
:106000008035DB0FF0E72046FFF70EFD02280BD0AE
:10601000002CEAD1704AD2F8883523F0405343F07F
:106020000053C2F88835E0E7A4B96B4AD2F8883546
:1060300023F0405343F00053C2F888350021204636
:10604000FFF7C4FC0123A3409BB2614A11880B43B4
:106050001380CAE7621E04F27F135F4951F82330B0
:1060600013F0405F07D002F5C07351F82330C3F33B
:106070000173012B06D10123A3409BB25549088827
:1060800003430B80544902F5C07251F8223023F0CB
:10609000405343F0005341F82230CFE7002591E709
:1060A0004B4B1B8853B94C4BD3F88035002BC0F2B7
:1060B00083800025454B00221A7083E7484C464BED
:1060C000D3F8303503F00303032B05D0424BD3F84C
:1060D00030350CB1013CF2E7002C57D1414DE9E7D6
:1060E000013C3D4BD3F8903513F0010F01D1002C4A
:1060F000F6D144B186BB384AD2F8883543F04053D4
:10610000C2F8883500250136344B1B6893F83B30C4
:10611000B342CFD30127B740BFB22D4B1B881F42DC
:10612000F1D002213046FFF751FC002ED9D00AE011
:1061300003F5C873284A52F8233013F0010FD8D161
:10614000002CD6D0013C731E244A126892F83B20E2
:106150009342EDD301BEEBE71E4B1B881F420AD0D2
:106160001D4A06F27F1152F8213023F0405342F8C5
:1061700021300025C7E7184A06F27F1152F8213076
:1061800043F0405342F821300025BCE70026154D6E
:10619000BAE7013B104AD2F8902512F0010F01D165
:1061A000002BF6D153B10C4AD2F8883543F0405356
:1061B000C2F8883500257DE7094BEBE7094D79E703
:1061C000094DFFE6084DFDE6FE2C00080A2D0008EB
:1061D000FC2C0008082D000800002640302D000887
:1061E00040420F0002004200FF00420010B5124B77
:1061F0001B6893F83C30984200D301BE00F1E003E5
:106200000E4A52F82330C3F3011301249C400A4B79
:106210001B6893F83C30984200D301BEE030074B36
:1062200053F8200000F00F00FFF706FE00EB5400CB
:10623000B0FBF4F010BD00BF302D00080000264078
:106240000A4B9A680A4B9A4204D01030094B53F813
:106250002000704739B100F11003054A52F82300BD
:1062600042F82310704701BEF5E700BF00ED00E0E3
:10627000002000080020001030B310B50446436829
:10628000072B00D901BEB4F900306268002B0EDB89
:106290005201D2B203F1604303F5614383F8002356
:1062A0000A4B9A680A4B9A4208D0002010BD03F0AE
:1062B0000F035201D2B20748C254F1E7B4F900000B
:1062C000FFF7BEFF0020F1E70348704700ED00E054
:1062D0000020000814ED00E00100560010B504464F
:1062E00005E0084B1868FCF767F8A4F50044B4F51E
:1062F000004FF6D8044B186800FB04F0FCF75CF87C
:1063000010BD00BFEC220008F022000808B5034BC6
:106310001B7800FB03F0FCF74FF808BDF4220008DF
:10632000054B4FF000429A649B6C002B01DB002070
:1063300070470248704700BF000027400300460036
:10634000044BD3F800085B6813F0FF0F01D040F452
:106350008020704700002640FEE7000008B5026874
:10636000254BDA6142681A6282685A62C2689A6290
:106370000269DA6242691A6382695A63C2699A637E
:106380001E4A916AD963D16A1964516A5964516B82
:106390009964926BDA64F1EE103A13F0900F27D003
:1063A000026A154B1A65426A5A65826A9A65C26A20
:1063B000DA65026B1A66426B5A66826B9A66C26B2A
:1063C000DA66026C1A67426C5A67826C9A67C26C12
:1063D000DA67026DC3F88020426DC3F88420826DB5
:1063E000C3F88820C26DC3F88C20026EC3F89020D9
:1063F000FFF7B2FF08BD00BF9029000800ED00E0E4
:1064000070B4044600282ED019232F48026816685D
:10641000B2F8A450725922F003028B422CBF002321
:1064200001231A43725102681668B2F8A4507259D7
:1064300022F44072725102681668B2F8A65072597E
:1064400022F003021343735103681868B3F8A620BF
:10645000835823F4407383503CB110291FD921295C
:1064600028D801221CE06423CFE7174B1B6893F860
:1064700051208A4220D293F852208A421ED293F8A9
:1064800053208A421CD293F854208A421AD293F89D
:1064900055308B4201D2052202E0042200E00022A6
:1064A000094B1B6859680B6823F00F0313430B60FB
:1064B00070BC70470222F3E70022F1E70122EFE708
:1064C0000222EDE70322EBE7302D00084FF0B05336
:1064D0009B899BB2FBB14FF0B0539B899BB2B3F544
:1064E000807F18D010B4174B1B6823F440731649F3
:1064F0000A681468D2F89400225802F440721343D8
:1065000023500B681A68D3F8983010490968D150A5
:106510005DF8044B70470C4A13681868D3F8941060
:10652000435823F00F0343F00203435013681968E4
:10653000D3F898208B5823F00F0343F002038B50BD
:10654000704700BF48180016302D00084418001688
:106550004FF0B0539B899BB2FBB14FF0B0539B8976
:106560009BB2B3F5807F18D010B4174B1B6823F48F
:10657000407316490A681468D2F89400225802F44D
:106580004072134323500B681A68D3F898301049AF
:106590000968D1505DF8044B70470C4A13681868BD
:1065A000D3F89410435823F00F0343F003034350F0
:1065B00013681968D3F898208B5823F00F0343F021
:1065C00003038B50704700BF24180016302D0008BD
:1065D000201800164FF0B0539B899BB2ABB14FF01F
